:020000040800F2
:1000000088050020450100088719000839180008F4
:100010008519000867030008192000080000000087
:10002000000000000000000000000000C9190008E6
:10003000AB0300080000000095190008CB19000868
:100040005F0100085F0100085F0100085F01000810
:100050005F0100085F0100085F0100085F01000800
:100060005F0100085F0100085F0100085F010008F0
:100070005F0100085F0100086903000875030008BC
:100080005F0100085F0100085F0100085F010008D0
:100090005F0100085F0100085F0100085F010008C0
:1000A0005F0100085F0100085F0100085F010008B0
:1000B0005F0100085F0100085F0100085F010008A0
:1000C0005F0100085F0100085F0100085F01000890
:1000D0005F010008B11F00085F0100085F01000810
:1000E0005F0100085F0100085F0100085F01000870
:1000F0005F0100085F0100085F0100085F01000860
:100100005F0100085F0100085F0100085F0100084F
:100110005F0100085F0100085F0100085F0100083F
:100120005F0100085F0100085F0100085F0100082F
:10013000DFF80CD000F0A4F800480047F1210008D7
:10014000880500200648804706480047FEE7FEE78E
:10015000FEE7FEE7FEE7FEE7FEE7FEE7FEE7FEE777
:100160002D1A00083101000840EA01039B0703D063
:1001700009E008C9121F08C0042AFAD203E011F8E6
:10018000013B00F8013B521EF9D27047D2B201E0A8
:1001900000F8012B491EFBD270470022F6E710B58C
:1001A00013460A4604461946FFF7F0FF204610BDE5
:1001B00030B504460020034600E05B1C934203D2A6
:1001C000E05CCD5C401BF8D030BD70B5064601F058
:1001D00045FF046805460A220021304600F018F861
:1001E0002C6070BD30B50B46014600202022012452
:1001F00009E021FA02F59D4205D303FA02F5491BF5
:1002000004FA02F52844151EA2F10102F1DC30BD0A
:100210002DE9F04791460F4680460446002614F823
:10022000015B2DB100F03EF80068405DC007F6D1DB
:100230002B2D02D02D2D18D0641E4A46394620465B
:1002400000F034F827B13968A14201D1C7F8008025
:1002500071054FF002040BD54042002803DD01F088
:10026000FDFE0460A007BDE8F08746F48066E4E781
:100270000028F8DA01F0F2FE04606FF00040F2E7C7
:10028000064C074D06E0E06840F0010394E80700E3
:1002900098471034AC42F6D3FFF74EFFD423000842
:1002A000F423000800487047D02300082DE9F05FD0
:1002B00082460078002715468B460AF10104B946AC
:1002C000302801D09DB113E014F8010B01277828E4
:1002D00003D0582801D045B10AE00DB1102D07D147
:1002E0000027102514F8010B02E0082500E00A257C
:1002F0000026B0460EE005FB080005FB06F10127CD
:1003000001EB10461FFA80F8B6F5803F00D3B946DE
:1003100014F8010B294600F018F80028EBDABBF1BD
:10032000000F05D00FB1641E00E05446CBF800402A
:10033000B9F1000F06D001F091FE02210160C81E44
:10034000BDE8F09F48EA0640FAE73A2800D2303884
:1003500020F02002412A01D3A2F13700884201D3C4
:100360004FF0FF307047FEE7014800F0DDB80000B5
:1003700044010020014800F0D7B80000000100202F
:1003800030B590F840500124AC40C56B6C600468F7
:1003900063604368102B036803D099600068C260F3
:1003A00030BD9A600068C16030BD704772B6FEE72C
:1003B00010B590F821100022022905D00421816394
:1003C00080F82020012010BD01680B6823F00E0387
:1003D0000B6001680B6823F001030B6090F840305C
:1003E000C46B012101FA03F3636080F8211080F8E7
:1003F0002020104610BD00002DE9F05F90F821107C
:100400000024022903D004218163012485E00168CE
:100410000A6822F00E020A6001680A6822F00102EE
:100420000A603F4E3E4FB215DFF8F4C0DFF8F0909F
:10043000DFF8ECA0DFF8E8B0DFF8E4E00168783F2F
:1004400013011502ACF1640CA9F15009AAF13C0AA0
:10045000ABF1280BAEF1140E4FF48018B14227D93E
:10046000B9420ED0614512D049451DD0514518D032
:10047000594518D0714501D1424615E0294EB14287
:1004800001D1012210E0274E1436B14201D11022D1
:100490000AE0244E2836B14206D0224A3C3291422C
:1004A00001D11A4600E02A461E49091F0A602BE0C6
:1004B000B94213D0614517D0494522D051451DD0CE
:1004C00059451DD0714501D142461AE0B14202D1D1
:1004D0004FF0807215E0134EB14201D1012210E0BD
:1004E000104E1436B14201D110220AE00D4E2836CA
:1004F000B14206D00B4A3C32914201D11A4600E08B
:100500002A46074980394A60012180F821100021DC
:1005100080F82010416B01B188472046BDE8F09F6C
:1005200080000240080402402DE9F05FC16B0A68B8
:1005300001680B68046C4FF0040808FA04F8844D55
:10054000844E854FDFF814C2DFF81492DFF814A24E
:10055000DFF814B2DFF814E218EA020F65D05FEAA0
:10056000437862D50A68920603D40A6822F004022E
:100570000A60DFF8F0814FF48062016808F1140826
:1005800013011402414524D9A9420DD0B1420FD024
:10059000B9421AD0614515D0494515D0514501D110
:1005A000120312E0594501D104220EE0714501D138
:1005B00040220AE06D4D1435A94206D06B4A28321C
:1005C000914201D11A4600E022466749091F0A609C
:1005D00029E0A94213D0B14215D0B94220D06145DB
:1005E0001BD049451BD0514502D14FF4800217E082
:1005F000414502D14FF0806212E0594501D10422F9
:100600000EE0714501D140220AE0584D1435A9424F
:1006100006D0564A2832914201D11A4600E02246BD
:100620004B4908394A60C16A71E04FF0020808FA84
:1006300004F818EA020F70D05FEA83786DD50A6873
:10064000920606D40A6822F00A020A60012180F8A4
:100650002110DFF810814FF40072016808F11408CE
:1006600013011402414524D9A9420DD0B1420FD043
:10067000B9421AD0614515D0494515D0514501D12F
:10068000120312E0594501D102220EE0714501D159
:1006900020220AE0354D1435A94206D0334A2832CB
:1006A000914201D11A4600E022462F49091F0A60F3
:1006B00029E0A94213D0B14215D0B94220D06145FA
:1006C0001BD049451BD0514502D14FF4001217E011
:1006D000414502D14FF0007212E0594501D102228A
:1006E0000EE0714501D120220AE0204D1435A942C7
:1006F00006D01E4A2832914201D11A4600E0224615
:10070000134908394A60002180F82010816A0029C5
:100710001CD0BDE8F05F0847FFE70825A54015425B
:1007200014D01A0712D50A6822F00E020A6090F857
:100730004020C36B012101FA02F25A60816380F804
:100740002110002180F82010016BE0E7BDE8F09F48
:10075000080002401C0002403000024044000240F9
:10076000580002406C000240080402401C04024091
:1007700030B560B11A4B026814219A4209D2194B64
:100780001344B3FBF1F18900016417490AE0012029
:1007900030BD134B5B421344B3FBF1F1890001649C
:1007A0000F490839C163022180F82110136843F60C
:1007B000F0718B43F0E901142143D0E902452C4349
:1007C0002143046921434469214384692143194336
:1007D000116000214163012242770177084630BD54
:1007E00008040240F8FFFDBF0000024070B5044657
:1007F00090F82000002501280CD0012084F820006A
:1008000094F821600020012E06D084F820000225F3
:10081000284670BD022070BD022684F82160A063C6
:100820002068066826F0010606602046FFF7A8FD4E
:10083000E06A00282068016802D041F00E0106E05D
:1008400021F0040101602068016841F00A010160A3
:100850002068016841F001010160D9E770B50446E4
:1008600000F018F90546601C02D0044800780444E2
:1008700000F010F9401BA042FAD370BD34000020F4
:100880002DE9F84FDFF8C891002409F1040A0AF1B4
:10089000040B23460F270BF1040ED1E00125A540E0
:1008A00006EA0502AA4276D1DFF8A8C14E68A6EB97
:1008B0000C0866452BD00DDC032E34D005DC36B396
:1008C000012E19D0022E2FD11BE0112E16D0122E80
:1008D0002AD119E0B8F5881F19D006DCB8F5803F99
:1008E00015D0B8F5801F1FD111E0B8F5001F0ED04C
:1008F000B8F5041F18D10AE0CB6815E0CB681B1DC2
:1009000012E0CB6808330FE0CB680C330CE08B6847
:100910002BB1012B4FF0080303D0456104E0042301
:1009200002E0056100E00023FF2A01D8064601E04D
:1009300000F104064FEA840501D9A5F12005D6F897
:10094000008007FA05FC28EA0C0803FA05F548EAD6
:100950000508C6F800804D68ED0070D53E4DAE69C3
:1009600046F00106AE61AD6924F0030605F001050D
:1009700000953A4D06EB050CDCF80850A607360F3B
:1009800007FA06F825EA0805DFF8D480404503D1C8
:100990004FF0000825E052E0DFF8C880404502D162
:1009A0004FF001081DE0DFF8C080404502D14FF054
:1009B000020816E0DFF8B480404502D14FF003088A
:1009C0000FE0DFF8AC80404502D14FF0040808E0AA
:1009D000DFF8A080404502D14FF0050801E04FF05C
:1009E000060808FA06F848EA0508CCF808804D68B9
:1009F000D9F80060ED034D4601D5164300E096435B
:100A00002E604D68DAF80060AD03554601D51643F7
:100A100000E096432E604D68DBF80060ED025D4615
:100A200001D5164300E096432E604D68DEF8006065
:100A3000AD02754601D5164300E096432E60641C56
:100A40000A681646E2407FF429AFBDE8F88F00003F
:100A5000000401400000111000100240000001409D
:100A600000080140000C014000100140001401404A
:100A700000180140001C0140C26821EA02030A403C
:100A800043EA0241016170470AB1016170470904FC
:100A9000FBE7000001488068704700003400002038
:100AA0000248816802781144816070473400002058
:100AB000074810B5016841F010010160032000F003
:100AC00075F80F2000F006F800F024F8002010BDA3
:100AD0000020024070B50D4D04464FF47A7128781D
:100AE000B1FBF0F00A490968B1FBF0F000F0ECFA54
:100AF00048B9102C07D200222146501E00F036F8CB
:100B000000206C6070BD012070BD0000340000202A
:100B1000400000200C4808B5816941F00101816165
:100B2000816901F001010091C16941F08051C16109
:100B3000C06900F0805000900448416821F0E061F5
:100B400041F00071416008BD00100240000001400A
:100B5000002809DB00F01F020121914040098000BC
:100B600000F1E020C0F8001170470000F0B40E4B17
:100B70001B680C46C3F30223C3F10705042D00D9FB
:100B80000425191D072901D2002300E0DB1E0126E0
:100B900006FA05F1491E214099409E40761E1640F6
:100BA0003143F0BC01F04ABA0CED00E0064900F018
:100BB000070208684FF6FF03184040EA0220034A84
:100BC00010430860704700000CED00E00000FA05DB
:100BD0002DE9F0470F46050061D0434E306800F024
:100BE0000700B84209D2306820F00700384330606F
:100BF000306800F00700B84251D128683B4C8107AB
:100C000012D5400703D5606840F4E0606060287842
:100C1000000703D5606840F4605060606068A968B0
:100C200020F0F000084360602878C00728D068688A
:100C3000012810D02168022810D0890700292EDA57
:100C4000616821F0030101436160FFF723FF8046E3
:100C500041F288390DE021688903EFE78901EDE76A
:100C6000FFF718FFA0EB0801494502D90320BDE8B2
:100C7000F0876068696800F00C00B0EB810FEFD17D
:100C8000306800F00700B8420BD9306820F0070048
:100C900038433060306800F00700B84201D00120CE
:100CA000E5E72878400705D56068E96820F4E0604A
:100CB000084360602878000706D56068296920F439
:100CC000605040EAC100606000F038F86168084A8E
:100CD000C1F30311515CC84006490860064800682A
:100CE000FFF7F8FE0020C2E700200240001002409B
:100CF0003423000840000020380000200448054943
:100D000000684968044AC1F30221515CC840704739
:100D10004000002000100240442300080448054918
:100D200000684968044AC1F3C221515CC840704759
:100D300040000020001002404423000812A185B0AA
:100D40000FC98DE80F0014A0144A00680490516880
:100D5000134801F00C03042B10D0082B0ED1C1F363
:100D60008343C9031DF803000AD5516804AAC1F3DF
:100D70004041515C0A4A5043B0FBF1F005B0704766
:100D800008494843FAE7000002030405060708097A
:100D90000A0B0C0D0E0F1010010200000010024093
:100DA00000127A0000093D002DE9F84F040070D0D0
:100DB0002078C04DC00749D06868C0F38100012881
:100DC00007D06868C0F38100022809D16868C003B1
:100DD00006D52868800339D560680028E7D035E05B
:100DE0006068B0F5803F0BD010B1B0F5A02F11D0E6
:100DF000286820F480302860286820F4802002E0F1
:100E0000286840F480302860606890B1FFF742FEA7
:100E100006460AE0286840F480202860F0E700BF1A
:100E2000FFF738FE801B642873D828688003F7D545
:100E30000CE0FFF72FFE064605E000BFFFF72AFE95
:100E4000801B6428F0D828688003F7D420789A4E55
:100E500080074FF001094FF0000839D5686810F09D
:100E60000C0F07D06868C0F38100022809D16868B8
:100E7000C00306D42868800714D52069012808D14A
:100E800010E02069B0B1C6F80090FFF703FE0746F6
:100E900005E00AE1FFF7FEFDC01B0228C4D8286860
:100EA0008007F7D52868616920F0F80040EAC100A2
:100EB00028600DE0C6F80080FFF7ECFD074604E06F
:100EC000FFF7E8FDC01B022823D828688007F7D465
:100ED000207800072CD57948A169D9B1C0F80090D5
:100EE000FFF7D8FD074604E0FFF7D4FDC01B02283A
:100EF0000FD8686A8007F7D571484FF4FA51006837
:100F0000B0FBF1F0009000BF0098411E0091FAD2B2
:100F10000EE080E0C0F80080FFF7BCFD074604E06B
:100F2000FFF7B8FDC01B022875D8686A8007F7D4A0
:100F30002078400760D5E8690027C00008D4E86938
:100F400040F08050E861E869012700F0805000908F
:100F50005C480168C90513D40168834641F4807177
:100F60000160FFF797FD824606E000BFFFF792FDA4
:100F7000A0EB0A0064284ED8DBF80000C005F5D5C8
:100F8000E06801280AD008B1052813D0286A20F0AB
:100F900001002862286A20F0040002E0286A40F07C
:100FA00001002862E06841F2883B98B1FFF772FDCA
:100FB00082460BE0286A40F004002862EEE700BF9A
:100FC000FFF768FDA0EB0A0159455AD8286A800747
:100FD000F6D50CE0FFF75EFD824605E0FFF75AFD0F
:100FE000A0EB0A0159454CD8286A8007F6D41FB1F6
:100FF000E86920F08050E861E06988B36968C1F36E
:101000008101022944D00228C6F8608004D0FFF78D
:1010100041FD044638E034E0FFF73CFD074604E0BC
:10102000FFF738FDC01B02282BD828688001F7D4B1
:10103000206AB0F5803F05D16868A16820F40030CF
:1010400008436860D4E908010843696821F4741111
:1010500008436860C6F86090FFF71CFD044606E090
:1010600025E000BFFFF716FD001B022809D82868FD
:101070008001F7D51BE000BFFFF70CFD001B022825
:1010800002D90320BDE8F88F28688001F4D40EE06F
:101090000128F7D06868226A00F48031914204D1B7
:1010A000616A00F47010884201D00120EAE7002054
:1010B000E8E7000000100240000042428004424283
:1010C000400000200070004010B5401EB0F1807F4D
:1010D00001D3012010BD4FF0E02460610F216017A3
:1010E00000F0ACFF0020A06107202061002010BDAF
:1010F00070B590F83C20012A2CD0012480F83C40A7
:10110000022280F83D2003685A689D6822F070062C
:101110000A6832435A60104B02689A420ED00F4B55
:101120009A420BD0B2F1804F08D00D4B9A4205D0B5
:101130000C4B9A4202D00C4B9A4204D1496825F0DC
:1011400080031943916080F83D40002180F83C10F5
:10115000084670BD022070BD002C014000340140E3
:101160000004004000080040000C004000B585B0BD
:10117000002100910191029103910068B0F1804F2C
:1011800011D10A48816941F0040181618069694691
:1011900000F00400049001200090022001900390D0
:1011A0000348FFF76DFB05B000BD000000100240D2
:1011B0000008014070B5044690F83C000D46012837
:1011C0000AD0012084F83C0042B1042A18D0082A31
:1011D0002AD00C2A4DD139E0022070BD206800F0E1
:1011E0007BFC2068816941F0080181612068816988
:1011F00021F004018161206881692A69114311E0AD
:10120000206800F099FC2068816941F400618161E7
:101210002068816921F480618161206881692A697F
:1012200041EA0221816124E0206800F0BBFC2068D3
:10123000C16941F00801C1612068C16921F0040160
:10124000C1612068C1692A69114311E0206800F07A
:10125000DDFC2068C16941F40061C1612068C16999
:1012600021F48061C1612068C1692A6941EA0221D3
:10127000C161002084F83C0070BD10B5040003D0AB
:1012800094F83D0010B107E0012010BD002084F863
:101290003C00204600F01EF8022084F83D00211D8D
:1012A000206800F0C5FB012084F8460084F83E0069
:1012B00084F83F0084F8400084F8410084F842003C
:1012C00084F8430084F8440084F8450084F83D0025
:1012D000002010BD08B50068B0F1804F08D1054866
:1012E000C16941F00101C161C06900F001000090D5
:1012F00008BD00000010024010B50446022249B1AA
:1013000004290ED0082913D094F84100012816D0E2
:10131000012010BD94F83E000128F9D184F83E2048
:101320000FE094F83F000128F2D184F83F2008E054
:1013300094F840000128EBD184F8402001E084F8C3
:1013400041200122206800F0B9FB13492068134AAC
:10135000884201D0904203D1436C43F4004343647C
:10136000206888420DD090420BD0B0F1804F08D059
:101370000B49884205D00B49884202D00A4988426D
:1013800004D1816801F00701062903D0016841F00A
:1013900001010160002010BD002C0140003401401B
:1013A0000004004000080040000C0040704710B5E9
:1013B00004460068416994F83D20C1F3C011212A18
:1013C0000BD151B1416921F080014161606B08B1DD
:1013D000FEF7EEFF204600F0C0FC2068416994F85B
:1013E0003E20C1F38011222A0BD151B1416921F075
:1013F00040014161A06B08B1FEF7DAFF204600F022
:1014000094FC002010BD7047F8B5026804461068CF
:10141000D168536910F00F0F4FF0000554D003F05E
:10142000010601F4907737435FD0C20705D0CA05A3
:1014300003D5226C42F001022264420705D5DA0787
:1014400003D0226C42F002022264820705D5DA073B
:1014500003D0226C42F004022264020707D501F097
:101460002002324303D0226C42F008022264226C34
:10147000002A35D0800604D5880602D5204600F023
:1014800075FC20684069216CC0F3801001F00801F0
:101490000143204625D000F048FC206841694906F8
:1014A0001BD5416921F040014161A06BA8B15849A9
:1014B0004163A06BFEF7A0FF002811D0A06B416B29
:1014C00001B0BDE8F040084783060ED58B060CD569
:1014D0002046BDE8F84000F049BC2046FFF793FFE6
:1014E000F8BDFFF790FF2564F8BD266B2023012E81
:1014F00052D1C60650D5CE064ED510685068009021
:10150000506940062AD5A16B086840680004000CA9
:10151000EAD0A68D8642E7D9E0858869202818D0D0
:10152000D06820F48070D0602068416921F001010A
:1015300041612068416921F04001416184F83E30F9
:1015400025632068C16821F01001C160A06BFEF71F
:101550002FFFA08DE18D401A81B219E0A08DE18DA1
:10156000401A81B2E08D0028BED00029BCD0D068DE
:1015700020F49070D0602068426922F0010242613C
:1015800084F83E3025632068C26822F01002C260F1
:101590002046FFF70BFFF8BD05062BD50D0629D514
:1015A00094F83D002128F6D1A068B0F5805F01D104
:1015B0002069B0B1206A411C21622168007848602E
:1015C000E08C401E0004000CE084E4D12068C16877
:1015D00021F08001C1602068C16841F04001C16014
:1015E000F8BD206A0088C0F308005060206A801CA3
:1015F0002062E5E74006F3D54806F1D5D1682046DC
:1016000021F04001D16084F83D3000F014F9F8BDBC
:101610005D1C000870B5040004D094F83D0000255E
:1016200010B106E0012070BD84F83C50204600F067
:1016300023F8242084F83D002068C16821F400517B
:10164000C160204600F0EEFB2068016921F4904162
:1016500001612068416921F02A0141612068C16867
:1016600041F40051C1602564202084F83D0084F8D5
:101670003E00002070BD0000F0B585B00024064695
:10168000009401940294039400682D49884254D137
:101690002C48816941F480418161816901F4804174
:1016A0000491816941F0040181618069022500F0A3
:1016B000040004904FF40070CDE900050320224F90
:1016C000039069463846FFF7DBF868028DE8310081
:1016D00069463846FFF7D4F81D4D1C488027C5E9F8
:1016E0000004C5E9024720202C61C5E905402846D1
:1016F000EC61FFF73DF808B1FEF758FEB5636E6286
:10170000134D12484435143801C5102091C51048B6
:1017100045F8104944306C61AC61EC61FFF728F882
:1017200008B1FEF743FE75630022012125206E6299
:10173000FFF71CFA2520FFF70BFA05B0F0BD0000FB
:1017400000380140001002400008014058000240EB
:101750000001002090F83E30202B0ED159B152B13B
:1017600090F83C30012B08D0012380F83C30002356
:10177000036300F0B3BB012070470220704770473D
:10178000704700002DE9F843044690F83D001F46DD
:1017900016460D4620284CD1C5B1BEB194F83C0088
:1017A000012846D0012084F83C004FF00008C4F81E
:1017B0004080212084F83D00FFF76CF9A684814623
:1017C000E684A068B0F5805F03D004E00120BDE8A6
:1017D000F883206928B12E465FF0000584F83C802C
:1017E0000EE00026FAE78021204600F0AFFBA0B90A
:1017F000AEB116F8010B21684860E08C401EE08411
:10180000E08C4B464FF0000200970028EBD14FF0E0
:101810004001204600F09AFB30B10320D7E735F8AD
:10182000020BC0F30800E6E7202084F83D0000200A
:10183000CDE70220CBE77047FEE700000D4808B572
:10184000416941F0010141614069002200F001005D
:10185000009001210E20FFF789F90E20FFF778F99B
:10186000002201210F20FFF781F9BDE808400F2079
:10187000FFF76EB90010024030B585B00024134860
:101880000094019402940394816941F00401816100
:10189000816901F004010491816941F008018161CD
:1018A00080690B4D00F008000490002202212846B8
:1018B000FFF7EAF802210120CDE90010CDE902414D
:1018C00069462846FEF7DCFF05B030BD0010024037
:1018D000000C014010B58AB0002407941C21684612
:1018E0000894FEF75AFC16484FF0804101604721EA
:1018F000C0E9011444F61F61C0E90314802181612D
:10190000FFF7BBFC08B1FEF751FD079407A90C488F
:101910000894FFF7EDFB08B1FEF748FD6020CDE924
:10192000000402940022694605480494FFF742FC33
:1019300008B1FEF73BFD0248FFF718FC0AB010BDE6
:101940004C00002010B50E4C0C480C2120604FF4C8
:10195000E13060600020A060E060C4E90401A061A3
:10196000E0612046FFF756FE08B1FEF71FFD206834
:10197000C16841F01001C16010BD00000038014095
:10198000BC000020FEE7FEE7014909684863704794
:101990004C0000207047000010B51422064907488B
:1019A000FFF7D8FE00210648FFF7A6FC054840686F
:1019B000BDE81040FFF7E8BF94000020BC00002005
:1019C0004C000020000000207047FFF769B830B5D8
:1019D0008FB028216846FEF7E0FB14210AA8FEF725
:1019E000DCFB01210804CDE900100024029402254B
:1019F0000491CDE907504FF4E01009906846FFF7D5
:101A0000D3F908B172B6FEE70F20CDE90A054FF40D
:101A10008060CDE90C4002210AA80E94FFF7D8F8A7
:101A2000002801D072B6FEE70FB030BD704700004D
:101A3000F0B502681C4B1D4D1D4E1E4F1E4C4FF045
:101A4000804C984209D0A04207D0604505D0A842FA
:101A500003D0B04201D0B84204D122F0700E4A68DF
:101A600042EA0E02984209D0A04207D0604505D054
:101A7000A84203D0B04201D0B84203D122F440754D
:101A8000CA682A434D6922F080022A4302608A68AC
:101A9000C2620A688262984201D0A04201D10969FB
:101AA000016301214161F0BD002C014000040040B0
:101AB00000080040000C00400034014010B501F067
:101AC0001F030121046A99408C430462016A9A4011
:101AD0001143016210BD0000F0B5026A22F001025C
:101AE0000262036A42688469124E24F073050C682E
:101AF0002C4323F002058B682B430D4DA84201D0E7
:101B0000B04205D123F00807CB683B4323F0040320
:101B1000A84201D0B04205D14D6922F4407215436C
:101B20008A692A4342608461496841630362F0BD67
:101B3000002C014000340140F0B5026A22F010028E
:101B40000262026A436884690D6824F4E64444EA48
:101B500005248D6822F0200242EA05120F4D104E36
:101B6000A84201D0B04206D1CF6822F0800242EAFA
:101B7000071222F04002A84201D0B04207D14D69BD
:101B800023F4406343EA85038D6943EA8503436098
:101B90008461496881630262F0BD0000002C01404D
:101BA00000340140F0B5026A22F480720262026AD7
:101BB0004368C46922F4007224F073050C68124E65
:101BC0002C438D6842EA05220E4DA84201D0B04256
:101BD00006D1CF6822F4006242EA072222F4806232
:101BE000A84201D0B04207D14D6923F4405343EAE3
:101BF00005138D6943EA05134360C4614968C163F5
:101C00000262F0BD002C01400034014030B5026A90
:101C100022F480520262046A4268C3690D6823F4A8
:101C2000E64343EA05238D6824F4005444EA05346E
:101C3000084DA84202D0084DA84204D14D6922F4B3
:101C4000804242EA85124260C361496801640462CD
:101C500030BD0000002C01400034014010B5406A46
:101C60000021C185C184FFF7CEFB10BD70B5446A69
:101C70002068406994F83D10C0F3C0100025212968
:101C800004D118B1E584204600F067F82068406967
:101C900094F83E10C0F38010222904D118B1E585D4
:101CA000204600F042F8206C40F0100020642046EE
:101CB000FFF7A9FB70BD10B50146406A09680968C5
:101CC00089061BD40021C1850168CA6822F480728C
:101CD000CA6001684A6922F001024A6101684A69E2
:101CE00022F040024A61202180F83E10016B012958
:101CF00004D10168CA6822F01002CA60016B012990
:101D000002D0FFF73CFD10BD818DFFF74FFB10BDEA
:101D100010B5406A016B012902D0FFF731FD10BDFB
:101D2000818D4908FFF742FB10BD0168CA6822F4A3
:101D30009072CA6001684A6922F001024A61016B2F
:101D4000012904D10168CA6822F01002CA6020216A
:101D500080F83E100021016370470168CA6822F0D4
:101D6000C002CA60202180F83D10704708B590F885
:101D70003E10222901D0022008BD82684FF4805312
:101D80009A4201D1016921B1816A9A421BD04AB1BC
:101D90000AE00268816A5268C2F308020A80816A16
:101DA000891C08E0026972B10268526802F07F0281
:101DB0000A70816A491C8162C18D491E0904090C9F
:101DC000C18503D019E002685268F1E70168CA686A
:101DD00022F02002CA600168CA6822F48072CA60D8
:101DE00001684A6922F001024A61202180F83E1010
:101DF000016B012903D0FFF7C2FC002008BD0021C0
:101E000001630168CA6822F01002CA6001680A68AA
:101E1000D20602D50A6849680091818DFFF7C6FA9B
:101E2000EBE7000070B5044600680169E26821F440
:101E30004051114301612169A06808436169084369
:101E40002168CA6841F20C639A430243CA60206861
:101E50004169A26921F44071114341611E49206822
:101E6000884202D1FEF75AFF01E0FEF747FF00EB80
:101E7000C00101EB0012606864218000B2FBF0F346
:101E8000B3FBF1F36FF018067343B2FBF0F5B2FB4E
:101E9000F0F605EB8305322303EB0515B5FBF1F5F1
:101EA000B6FBF1F605F0F00505EB0615B2FBF0F612
:101EB000B2FBF0F0B0FBF1F06FF01802504306EB0C
:101EC000800003EB0010B0FBF1F0216800F00F0080
:101ED0002844886070BD00000038014038B5816238
:101EE00082850025134604460564222084F83E00BE
:101EF000A26B13489062A26B1248D062A26B124888
:101F00001063A06B0A4645632168A06B091DFEF7AC
:101F10006DFC206801684168009184F83C50C168FC
:101F200041F48071C1602068416941F00101416163
:101F30002068416941F040014161002038BD000046
:101F4000B71C0008111D00086D1C00082DE9F041A8
:101F5000984617460E460446069D1DE0681C1BD099
:101F60002DB1FEF797FDA0EB0800A84214D9206818
:101F7000C16821F4D071C1602068416921F001017C
:101F80004161202084F83D0084F83E00002084F860
:101F90003C000320BDE8F0812068006836EA0000BC
:101FA00004D00020B842D9D00020F3E70120F9E79F
:101FB00038B5144800680168C943C9061CD40168D3
:101FC0000025406800900F48FFF7F1F90E480068BF
:101FD00040680E4CC0F11400C2B222700C490D488A
:101FE000FEF7C2F821780A48FEF7D7F825701422C8
:101FF00007490448FFF7AEFBBDE838400148FFF74A
:1020000003BA0000BC0000200001002033000020C3
:1020100094000020A8000020FEE700000FB4054B4C
:1020200010B503A9044A029800F02CF810BC5DF822
:1020300014FB0000D9210008440000200907090E04
:10204000002804DB00F1E02080F80014704700F065
:102050000F0000F1E02080F8141D70470048704721
:102060004800002002E008C8121F08C1002AFAD167
:1020700070477047002001E001C1121F002AFBD108
:10208000704700002DE9FF4F89B09B4604460025AC
:1020900006E025280BD05A460B999047641C6D1C0E
:1020A00020780028F5D10DB02846BDE8F08F002734
:1020B000B8460122474900E0074314F8013F203B9E
:1020C00002FA03F00842F7D120782E2819D114F82B
:1020D000010F47F004072A280ED06FF02F02207856
:1020E000A0F1300109290CD808EB880102EB41016D
:1020F00000EB0108641CF2E70A98641C50F8048B9A
:102100000A9020780028CED0642808D0692806D00C
:1021100075281ED05A460B9990476D1C58E00A99B5
:102120004FF00A0901C90A91002802DA40422D2124
:1021300002E0390504D52B218DF82010012103E0A0
:10214000F90704D02021F7E78A4608AE0DE0002108
:10215000FAE70A994FF00A0901C90A91F7E74946D7
:10216000FEF740F8303106F8011D0028F7D1ADEB3D
:10217000060000F12009780701D44FF00108C84596
:1021800002DDA8EB090000E000208046002706E001
:1021900008A85A46C05D0B9990476D1C7F1C574597
:1021A000F6DB04E030205A460B9990476D1CB8F1DD
:1021B0000001A8F10108F5DC05E016F8010B5A460C
:1021C0000B9990476D1CB9F10001A9F10109F4DCEC
:1021D000641C65E70928010004490A685206FCD519
:1021E000024AC1B2121D1160704700000038014060
:1021F00008B5FEF75DFC14213348FDF7CEFFFFF76D
:10220000E6FBFFF739FBFFF719FBFFF763FBFFF76F
:1022100099FBFFF7C1FB2D4D2D4C4FF6FF760221A8
:102220002846FEF729FC2820FEF718FB2849032240
:1022300024312548FDF7BCFF00283FD02449032264
:1022400014312148FDF7B4FF002839D0204903227A
:1022500018311D48FDF7ACFF002833D01C4903227C
:102260001C311948FDF7A4FF0028D8D119A0FFF7A9
:10227000D5FE042003460090154801221249203063
:1022800000F042F812482030FDF79FFF20614FF424
:10229000FA70FEF7E3FA17A02169FFF7BFFE206985
:1022A000FFF772FB0A4933460A2229311548FFF726
:1022B00069FA14210448FDF770FFB0E76068EFE7A2
:1022C000A068EDE7E068EBE7A8000020000C014003
:1022D000000000205072657061726520746F206389
:1022E00068616E67652074686520616E676C652043
:1022F0002E2E2E00616E676C65206973203A2025B2
:10230000640D0A00BC000020F0B5094D059E0024B4
:102310002C60B4420ADAE7180F4404EB020C844440
:1023200017F8017C0CF8017C641CF1E7F0BD00009B
:102330000000002000000000000000000102030473
:1023400006070809000000000102030400404040A5
:102350004040404040404141414141404040404078
:102360004040404040404040404040404005020224
:1023700002020202020202020202020202202020E3
:10238000202020202020200202020202020290903F
:10239000909090901010101010101010101010103D
:1023A0001010101010101010020202020202888891
:1023B000888888880808080808080808080808089D
:1023C0000808080808080808020202024000000085
:1023D0004D230008F4230008000000204C000000FA
:1023E00064200008402400084C0000203C05000048
:1023F0007420000800000000CA030000B0040000C0
:1024000002030000000000007265660073616D0049
:10241000616E7900000000006461726B0050574DDE
:10242000204953204F4B0000010000001000000025
:10243000000000000024F400000000000000000084
:0400000508000131BD
:00000001FF
