:020000040800F2
:10000000783E00204501000843230008A92100088C
:10001000412300085F070008ED29000800000000E8
:10002000000000000000000000000000AD240008F7
:10003000A30700080000000045230008AF240008C3
:100040005F0100085F0100085F0100085F01000810
:100050005F0100085F0100085F0100085F01000800
:100060005F0100085F0100085F0100085F010008F0
:100070005F0100085F010008610700086D070008C4
:100080005F0100085F0100085F0100085F010008D0
:100090005F0100085F0100085F0100085F010008C0
:1000A0005F0100085F0100085F0100085F010008B0
:1000B0005F010008312500085F0100085F010008AA
:1000C0005F0100085F0100085F0100085F01000890
:1000D0005F010008852900085F0100085F01000832
:1000E0005F0100085F0100085F0100085F01000870
:1000F0005F0100085F0100085F0100085F01000860
:100100005F0100085F0100085F0100085F0100084F
:100110005F0100085F0100085F0100085F0100083F
:100120005F0100085F0100085F0100085F0100082F
:10013000DFF80CD000F0D6FA00480047FD32000886
:10014000783E00200648804706480047FEE7FEE765
:10015000FEE7FEE7FEE7FEE7FEE7FEE7FEE7FEE777
:100160002D25000831010008202A04DB203A21FA5D
:1001700002F00021704721FA02F3D040C2F12002C0
:10018000914008431946704740EA01039B0703D09A
:1001900009E008C9121F08C0042AFAD203E011F8C6
:1001A000013B00F8013B521EF9D27047D2B201E088
:1001B00000F8012B491EFBD270470022F6E710B56C
:1001C00013460A4604461946FFF7F0FF204610BDC5
:1001D00030B504460020034600E05B1C934203D286
:1001E000E05CCD5C401BF8D030BD2DE9FE4F804671
:1001F00081EA0300C00F0C46009021F0004123F07B
:100200000045B8EB0200A94105D240462146904680
:100210001C460B46024623F00040104347D0270DF2
:10022000C7F30A00C3F30A510290401A0190402814
:100230006BDAC3F3130040F4801B0098924620B1A0
:100240000023D2EB030A63EB0B0B01985946C0F174
:100250004002504600F098F906460D465046594671
:10026000019A00F0A0F910EB08006141002487EA30
:10027000115284EAE7731A4340D0009A62B3019A9C
:10028000012A4FEA075215DC001B61EB02014FF017
:10029000004202EA0752CDE90042001C41F58011FC
:1002A00032462B4600F0A0F903B0BDE8F08F40467F
:1002B0002146F9E7001B61EB0201001C41F58013A8
:1002C00000185B412018A2F5001747EB030140EA34
:1002D000D570B6196D4111E06D084FEA360645EA52
:1002E000C0754FEA0752001B61EB0201001C41F58B
:1002F000801149084FEA30000019514132462B461F
:1003000003B0BDE8F04F00F060B900980122400052
:100310000023D0EB020263EBE073009821464FEA22
:10032000E074B8EB000061EB0401E9E783F00043FF
:100330005BE781F0004158E72DE9FE4F81EA0304B5
:1003400004F0004421F0004100944FF0000B23F032
:10035000004350EA01045ED052EA03045BD0C3F3C9
:100360000A54C1F30A552C44A4F2F3340194A0FBBF
:100370000254C1F3130141F48011C3F3130343F496
:10038000801301FB024400FB034E840A970A44EAEF
:10039000815447EA8357A4FB076802958D0A05FB41
:1003A00007854FEA932C04FB0C542705029D4FEA66
:1003B000065847EA1637B5EB08056EEB070C870EB3
:1003C000920E47EA811742EA8312A7FB0201B6EBBD
:1003D0000B0164EB00042B0D43EA0C335E1844EB75
:1003E0001C50DA465146E7FB0201C5F313044FEAFD
:1003F0000B3343EA14534FEA0432019C43EA0603E9
:10040000A4F10C040294009CCDE900B400F0ECF8D7
:1004100003B0BDE8F08F00200146F9E72DE9F04D6B
:1004200081EA030404F0004B21F0004514464FF02C
:10043000000A23F0004150EA050220D054EA0102EC
:100440001DD0C5F30A570246C5F31303C1F31300C9
:10045000C1F30A5640F4801543F48013A7EB060855
:10046000101BD64608F2FD3873EB050002D308F1E5
:10047000010801E092185B41B8F1000F03DA002097
:100480000146BDE8F08D00204FF4801106468446F9
:100490000EE0171B73EB050705D3121B63EB050377
:1004A00006434CEA010C49084FEA300092185B41C0
:1004B00050EA0107EDD152EA030012D082EA0400AB
:1004C00083EA0501084305D0101BAB4106D2012287
:1004D000002306E000224FF0004302E06FF001022B
:1004E00053101AEB06004CEB085110EB0A0041EBDD
:1004F0000B01BDE8F04D00F068B830B50B46014681
:1005000000202022012409E021FA02F59D4205D3B2
:1005100003FA02F5491B04FA02F52844151EA2F15C
:100520000102F1DC30BD2DE9F05F05460020924666
:100530009B4688460646814640241BE028464146A5
:1005400047462246FFF710FE53465A46C01A9141CD
:1005500010D311461846224600F016F82D1A67EB04
:1005600001084F4622460120002100F00DF817EB4C
:1005700000094E41201EA4F10104DFDC484631464B
:100580002A464346BDE8F09F202A04DB203A00FAC1
:1005900002F1002070479140C2F1200320FA03F3DA
:1005A000194390407047202A06DBCB17203A41FAC6
:1005B00002F043EAE07306E041FA02F3D040C2F1F0
:1005C0002002914008431946704710B5141E73F17C
:1005D000000408DA401C41F1000192185B411A4303
:1005E00001D120F0010010BD2DE9F04D92469B464F
:1005F00011B1B1FA81F202E0B0FA80F220329046F5
:10060000FFF7C2FF04460F4640EA0A0041EA0B0129
:1006100053465A46084313D0114653EA010019D0F5
:10062000C8F140025046FFF79FFD05460E46504672
:1006300059464246FFF7A8FF084305D0012004E0D1
:1006400020463946BDE8F08D0020054346EAE076B5
:100650002C4337430A986305E40AA0EB0800002204
:10066000FD0A44EA47540A3002D500200146E9E772
:10067000010510196941DDE9084500196941BDE826
:10068000F04DA2E7C1F30A52C1F3130140F2FF3368
:1006900041F480119A4202DA00200146704740F28C
:1006A00033439A42A2F2334202DC5242FFF75CBD6E
:1006B000FFF76ABF30B5041E71F1000404DB4FF090
:1006C0000044404264EB0101141E73F1000405DB99
:1006D0001C464FF00043524263EB0403994208BFAB
:1006E000904230BD064C074D06E0E06840F0010343
:1006F00094E8070098471034AC42F6D3FFF71CFD8E
:10070000B0340008D034000870B504460068816831
:10071000C943C90717D1816821F00101816000F048
:100720009DFD05460AE000BF00F098FD401B022831
:1007300004D920688068C043C00706D0206880685C
:10074000C043C007F0D0002070BDA06A40F0100088
:10075000A062E06A40F00100E062012070BDFEE7A7
:10076000014800F067BA0000103A0020014800F08C
:1007700061BA0000CC39002030B590F84050012417
:10078000AC40C56B6C60046863604368102B036801
:1007900003D099600068C26030BD9A600068C16093
:1007A00030BD704772B6FEE7044B0022DA61044A9E
:1007B000136943F00103136101807047583A002028
:1007C0000020024014480022C168CB06134904D51A
:1007D000CA6942F00202CA611022C3685B0705D5EC
:1007E000CB6943F00103CB6142F00402C369DB072C
:1007F00007D0CB6943F00403CB61C16921F001014B
:10080000C161A2F58071013901D0C2607047C16930
:1008100021F00101C161704700200240583A0020D8
:1008200070B5054600F01AFD0646114C09E0681C3B
:1008300007D025B100F012FD801BA84201D903208A
:1008400070BDE068C007F2D1E068800601D52020C5
:10085000E060E068C00605D4E069C00702D1E06846
:10086000400703D5FFF7AEFF012070BD002070BD2B
:1008700000200240F8B50024009490F8242025467A
:10088000012A12D0012280F824204A681F23072A57
:100890000DD20668776B521E02EB820293409F4393
:1008A0000B6893401F43776319E00220F8BD066888
:1008B0000D2A0AD2376BD21F02EB820293409F436C
:1008C0000B6893401F43376309E0F76A0D3A02EB68
:1008D000820293409F430B6893401F43F7620A686C
:1008E000072306680A2A0AD3F7680A3A02EB42028B
:1008F00093409F438B6893401F43F76008E037693C
:1009000002EB420293409F438B6893401F43376141
:100910000A68102A01D0112A20D1124B02689A428B
:1009200017D193681B0219D4936843F400039360B2
:100930000968102912D10C490C4A0968B1FBF2F17F
:1009400001EB8101490000E0491E00910029FBD123
:1009500004E0816A41F020018162012480F8245082
:100960002046F8BD002401401800002040420F003E
:100970002DE9F04104004FF0000514D0A06A0026D4
:1009800028B9E66284F82460204600F083F8204607
:10099000FFF7BAFEA16A01F01001014304D0A06A7A
:1009A00040F01000A0626BE0A16A21F4885141F090
:1009B0000201A162334923688B42E16904D1B1F598
:1009C000402F01D14FF40021277B4FF4807C41EA76
:1009D000470261680A43A168614509D0012907D02F
:1009E0005FF0000194F814E0BEF1010F02D00AE0BC
:1009F0006146F7E7C7B1A76A47F02007A762E76A31
:100A000047F00107E7625F6827F469470F435F60BB
:100A1000236899681C4F394011439960A16861456A
:100A20000BD0012909D00CE0DFF860E0A7690EEBDC
:100A300047370F4347F40061E5E7218A0D05A5F527
:100A400080152168CB6A23F470032B43CB622168A5
:100A500089680F4B1940914208D1E662A16A21F0E2
:100A6000020141F00101A162BDE8F081A06A20F01D
:100A7000020040F01000A062E06A40F00100E06275
:100A80000120F1E7003C0140FDF7E1FF00E0FFFF3E
:100A9000FE0E1FFF08B500680649884208D10648C7
:100AA000816941F400718161806900F400700090F7
:100AB00008BD0000002401400010024010B590F86D
:100AC00021100022022905D00421816380F8202012
:100AD000012010BD01680B6823F00E030B60016854
:100AE0000B6823F001030B6090F84030C46B0121C8
:100AF00001FA03F3636080F8211080F8202010468B
:100B000010BD00002DE9F05F90F8211000240229AB
:100B100003D004218163012485E001680A6822F082
:100B20000E020A6001680A6822F001020A603F4E64
:100B30003E4FB215DFF8F4C0DFF8F090DFF8ECA01C
:100B4000DFF8E8B0DFF8E4E00168783F1301150250
:100B5000ACF1640CA9F15009AAF13C0AABF1280BE5
:100B6000AEF1140E4FF48018B14227D9B9420ED01D
:100B7000614512D049451DD0514518D0594518D06E
:100B8000714501D1424615E0294EB14201D1012201
:100B900010E0274E1436B14201D110220AE0244E53
:100BA0002836B14206D0224A3C32914201D11A463F
:100BB00000E02A461E49091F0A602BE0B94213D003
:100BC000614517D0494522D051451DD059451DD00A
:100BD000714501D142461AE0B14202D14FF0807214
:100BE00015E0134EB14201D1012210E0104E14362F
:100BF000B14201D110220AE00D4E2836B14206D092
:100C00000B4A3C32914201D11A4600E02A4607497C
:100C100080394A60012180F82110002180F82010DD
:100C2000416B01B188472046BDE8F09F800002403B
:100C3000080402402DE9F05FC16B0A6801680B6887
:100C4000046C4FF0040808FA04F8844D844E854F74
:100C5000DFF814C2DFF81492DFF814A2DFF814B240
:100C6000DFF814E218EA020F65D05FEA437862D534
:100C70000A68920603D40A6822F004020A60DFF8C8
:100C8000F0814FF48062016808F114081301140226
:100C9000414524D9A9420DD0B1420FD0B9421AD052
:100CA000614515D0494515D0514501D1120312E0D7
:100CB000594501D104220EE0714501D140220AE0DC
:100CC0006D4D1435A94206D06B4A2832914201D1AC
:100CD0001A4600E022466749091F0A6029E0A94236
:100CE00013D0B14215D0B94220D061451BD049453F
:100CF0001BD0514502D14FF4800217E0414502D18B
:100D00004FF0806212E0594501D104220EE0714596
:100D100001D140220AE0584D1435A94206D0564A66
:100D20002832914201D11A4600E022464B49083947
:100D30004A60C16A71E04FF0020808FA04F818EA44
:100D4000020F70D05FEA83786DD50A68920606D4E8
:100D50000A6822F00A020A60012180F82110DFF8F7
:100D600010814FF40072016808F114081301140295
:100D7000414524D9A9420DD0B1420FD0B9421AD071
:100D8000614515D0494515D0514501D1120312E0F6
:100D9000594501D102220EE0714501D120220AE01D
:100DA000354D1435A94206D0334A2832914201D13B
:100DB0001A4600E022462F49091F0A6029E0A9428D
:100DC00013D0B14215D0B94220D061451BD049455E
:100DD0001BD0514502D14FF4001217E0414502D11A
:100DE0004FF0007212E0594501D102220EE0714528
:100DF00001D120220AE0204D1435A94206D01E4A16
:100E00002832914201D11A4600E02246134908399E
:100E10004A60002180F82010816A00291CD0BDE8BA
:100E2000F05F0847FFE70825A540154214D01A07D0
:100E300012D50A6822F00E020A6090F84020C36BB7
:100E4000012101FA02F25A60816380F82110002129
:100E500080F82010016BE0E7BDE8F09F0800024039
:100E60001C00024030000240440002405800024092
:100E70006C000240080402401C04024030B560B11E
:100E80001A4B026814219A4209D2194B1344B3FB3E
:100E9000F1F18900016417490AE0012030BD134BCC
:100EA0005B421344B3FBF1F1890001640F49083937
:100EB000C163022180F82110136843F6F0718B435F
:100EC000F0E901142143D0E902452C432143046990
:100ED000214344692143846921431943116000215E
:100EE0004163012242770177084630BD0804024081
:100EF000F8FFFDBF0000024070B5044690F82000E6
:100F0000002501280CD0012084F8200094F82160ED
:100F10000020012E06D084F820000225284670BD4E
:100F2000022070BD022684F82160A0632068066854
:100F300026F0010606602046FFF71EFCE06A002846
:100F40002068016802D041F00E0106E021F00401A2
:100F500001602068016841F00A01016020680168B1
:100F600041F001010160D9E770B5044600F076F95F
:100F70000546601C02D004480078044400F06EF975
:100F8000401BA042FAD370BD0C0000200348016949
:100F900041F0800101610020704700000020024004
:100FA0002DE9F05F07461C4888460024017E15465F
:100FB0001E46012909D00121814601764CF2503AA2
:100FC0005046FFF72DFC18B122E00220BDE8F09F4B
:100FD000012F02D0022F00D00427D346DFF83CA017
:100FE000220128463146FFF7BFF881B208EB4400E2
:100FF000FFF7DAFB5846FFF713FCDAF8102022F06F
:101000000102CAF8102018B9641CE4B2BC42E7D34C
:10101000002289F81820D9E7583A00200020024021
:10102000064900200A69120607D5054A4A60054AA2
:101030004A600969090600D5012070470020024076
:1010400023016745AB89EFCD2DE9F84FDFF8C89153
:10105000002409F1040A0AF1040B23460F270BF1BF
:10106000040ED1E00125A54006EA0502AA4276D188
:10107000DFF8A8C14E68A6EB0C0866452BD00DDC46
:10108000032E34D005DC36B3012E19D0022E2FD119
:101090001BE0112E16D0122E2AD119E0B8F5881FA8
:1010A00019D006DCB8F5803F15D0B8F5801F1FD1E8
:1010B00011E0B8F5001F0ED0B8F5041F18D10AE0F2
:1010C000CB6815E0CB681B1D12E0CB6808330FE03E
:1010D000CB680C330CE08B682BB1012B4FF008036D
:1010E00003D0456104E0042302E0056100E0002331
:1010F000FF2A01D8064601E000F104064FEA840504
:1011000001D9A5F12005D6F8008007FA05FC28EAE8
:101110000C0803FA05F548EA0508C6F800804D6892
:10112000ED0070D53E4DAE6946F00106AE61AD6989
:1011300024F0030605F0010500953A4D06EB050C79
:10114000DCF80850A607360F07FA06F825EA080566
:10115000DFF8D480404503D14FF0000825E052E08D
:10116000DFF8C880404502D14FF001081DE0DFF8EC
:10117000C080404502D14FF0020816E0DFF8B4808D
:10118000404502D14FF003080FE0DFF8AC80404546
:1011900002D14FF0040808E0DFF8A080404502D1FA
:1011A0004FF0050801E04FF0060808FA06F848EA93
:1011B0000508CCF808804D68D9F80060ED034D466D
:1011C00001D5164300E096432E604D68DAF80060C2
:1011D000AD03554601D5164300E096432E604D6899
:1011E000DBF80060ED025D4601D5164300E0964352
:1011F0002E604D68DEF80060AD02754601D51643DD
:1012000000E096432E60641C0A681646E2407FF4B4
:1012100029AFBDE8F88F0000000401400000111064
:10122000001002400000014000080140000C014095
:10123000001001400014014000180140001C014052
:10124000C26821EA02030A4043EA02410161704791
:101250000AB1016170470904FBE70000014880689A
:10126000704700000C000020024881680278114499
:10127000816070470C000020074810B5016841F0FC
:1012800010010160032000F075F80F2000F006F84F
:1012900000F024F8002010BD0020024070B50D4D74
:1012A00004464FF47A712878B1FBF0F00A490968D6
:1012B000B1FBF0F000F062FB48B9102C07D200221D
:1012C0002146501E00F036F800206C6070BD0120F1
:1012D00070BD00000C000020180000200C4808B56C
:1012E000816941F001018161816901F00101009191
:1012F000C16941F08051C161C06900F08050009027
:101300000448416821F0E06141F00071416008BD8E
:101310000010024000000140002809DB00F01F021D
:10132000012191404009800000F1E020C0F8001147
:1013300070470000F0B40E4B1B680C46C3F3022349
:10134000C3F10705042D00D90425191D072901D271
:10135000002300E0DB1E012606FA05F1491E2140AC
:1013600099409E40761E16403143F0BC01F050BBC0
:101370000CED00E0064900F0070208684FF6FF0395
:10138000184040EA0220034A1043086070470000FA
:101390000CED00E00000FA052DE9F8430546007861
:1013A000354CC00754D0E0690026C00008D4E0697D
:1013B00040F08050E061E069012600F0805000902C
:1013C0002E480168C90512D40168804641F4807135
:1013D0000160FFF743FF074605E000BFFFF73EFF50
:1013E000C01B642823D8D8F80000C005F6D5206AB1
:1013F00010F4407021D0A98801F4407181421CD0C2
:10140000206A1F49012220F440700A6000220A600D
:101410002062C00711D0FFF721FF074641F288384C
:1014200008E000BFFFF71AFFC11B414502D90320A6
:10143000BDE8F883206A8007F4D5206A696820F443
:101440004070084320621EB1E06920F08050E061E6
:101450002878800705D56068A96820F440400843D3
:1014600060602878C00605D56068696920F480004E
:10147000084360600020DBE700100240007000407D
:10148000400442422DE9F0470F46050061D0434E2B
:10149000306800F00700B84209D2306820F0070039
:1014A00038433060306800F00700B84251D12868F6
:1014B0003B4C810712D5400703D5606840F4E060DB
:1014C00060602878000703D5606840F46050606071
:1014D0006068A96820F0F000084360602878C007C1
:1014E00028D06868012810D02168022810D0890708
:1014F00000292EDA616821F0030101436160FFF7E2
:10150000ADFE804641F288390DE021688903EFE79E
:101510008901EDE7FFF7A2FEA0EB0801494502D9DA
:101520000320BDE8F0876068696800F00C00B0EB4C
:10153000810FEFD1306800F00700B8420BD9306856
:1015400020F0070038433060306800F00700B842F0
:1015500001D00120E5E72878400705D56068E968F3
:1015600020F4E060084360602878000706D56068D2
:10157000296920F4605040EAC100606000F038F84A
:101580006168084AC1F30311515CC840064908600C
:1015900006480068FFF782FE0020C2E700200240F4
:1015A00000100240983400081800002010000020AD
:1015B0000448054900684968044AC1F30221515CA6
:1015C000C84070471800002000100240A8340008EE
:1015D0000448054900684968044AC1F3C221515CC6
:1015E000C84070471800002000100240A8340008CE
:1015F00012A185B00FC98DE80F0014A0144A00682D
:1016000004905168134801F00C03042B10D0082BF0
:101610000ED1C1F38343C9031DF803000AD55168F5
:1016200004AAC1F34041515C0A4A5043B0FBF1F0B7
:1016300005B0704708494843FAE700000203040573
:10164000060708090A0B0C0D0E0F1010010200000E
:101650000010024000127A0000093D002DE9F84F09
:10166000040070D02078C04DC00749D06868C0F32E
:101670008100012807D06868C0F38100022809D1E1
:101680006868C00306D52868800339D560680028DB
:10169000E7D035E06068B0F5803F0BD010B1B0F511
:1016A000A02F11D0286820F480302860286820F40A
:1016B000802002E0286840F480302860606890B1A3
:1016C000FFF7CCFD06460AE0286840F48020286039
:1016D000F0E700BFFFF7C2FD801B642873D82868BD
:1016E0008003F7D50CE0FFF7B9FD064605E000BF23
:1016F000FFF7B4FD801B6428F0D828688003F7D476
:1017000020789A4E80074FF001094FF0000839D534
:10171000686810F00C0F07D06868C0F381000228D9
:1017200009D16868C00306D42868800714D52069E9
:10173000012808D110E02069B0B1C6F80090FFF789
:101740008DFD074605E00AE1FFF788FDC01B022872
:10175000C4D828688007F7D52868616920F0F800A8
:1017600040EAC10028600DE0C6F80080FFF776FD72
:10177000074604E0FFF772FDC01B022823D8286843
:101780008007F7D4207800072CD57948A169D9B112
:10179000C0F80090FFF762FD074604E0FFF75EFD2A
:1017A000C01B02280FD8686A8007F7D571484FF42C
:1017B000FA510068B0FBF1F0009000BF0098411EA4
:1017C0000091FAD20EE080E0C0F80080FFF746FDFD
:1017D000074604E0FFF742FDC01B022875D8686A7F
:1017E0008007F7D42078400760D5E8690027C0005B
:1017F00008D4E86940F08050E861E869012700F00A
:10180000805000905C480168C90513D40168834684
:1018100041F480710160FFF721FD824606E000BFC0
:10182000FFF71CFDA0EB0A0064284ED8DBF800008F
:10183000C005F5D5E06801280AD008B1052813D005
:10184000286A20F001002862286A20F0040002E0E3
:10185000286A40F001002862E06841F2883B98B1B4
:10186000FFF7FCFC82460BE0286A40F00400286287
:10187000EEE700BFFFF7F2FCA0EB0A0159455AD88A
:10188000286A8007F6D50CE0FFF7E8FC824605E001
:10189000FFF7E4FCA0EB0A0159454CD8286A800701
:1018A000F6D41FB1E86920F08050E861E06988B3A0
:1018B0006968C1F38101022944D00228C6F860801A
:1018C00004D0FFF7CBFC044638E034E0FFF7C6FC59
:1018D000074604E0FFF7C2FCC01B02282BD828688B
:1018E0008001F7D4206AB0F5803F05D16868A1680F
:1018F00020F4003008436860D4E9080108436968AF
:1019000021F4741108436860C6F86090FFF7A6FCE4
:10191000044606E025E000BFFFF7A0FC001B0228FC
:1019200009D828688001F7D51BE000BFFFF796FCB7
:10193000001B022802D90320BDE8F88F2868800127
:10194000F4D40EE00128F7D06868226A00F48031F0
:10195000914204D1616A00F47010884201D00120E4
:10196000EAE70020E8E700000010024000004242E1
:1019700080044242180000200070004010B5401E54
:10198000B0F1807F01D3012010BD4FF0E0246061F1
:101990000F21601701F03CF80020A06107202061B2
:1019A000002010BD7047704770B590F83C20012AA8
:1019B0002CD0012480F83C40022280F83D200368AE
:1019C0005A689D6822F070060A6832435A60104BCC
:1019D00002689A420ED00F4B9A420BD0B2F1804F60
:1019E00008D00D4B9A4205D00C4B9A4202D00C4BBA
:1019F0009A4204D1496825F080031943916080F828
:101A00003D40002180F83C10084670BD022070BDAA
:101A1000002C014000340140000400400008004058
:101A2000000C004010B5040003D094F83D0010B144
:101A300007E0012010BD002084F83C00204600F0A3
:101A40001FF8022084F83D00211D206800F076FD7B
:101A5000012084F8460084F83E0084F83F0084F8B2
:101A6000400084F8410084F8420084F8430084F880
:101A7000440084F8450084F83D00002010BD0000BB
:101A800008B500680B49884212D10B48C16941F082
:101A90000201C161C069002200F002000090022131
:101AA0001D20FFF747FCBDE808401D20FFF734BCB0
:101AB00008BD0000000400400010024070B504465C
:101AC00090F83C00012817D0012584F83C500220F2
:101AD00084F83D002068826822F0770222F47F4279
:101AE00082600868502830D00DDC20284DD005DCFD
:101AF00098B310283BD148E0022070BD302844D074
:101B0000402834D139E0602828D0702806D0B0F5BC
:101B1000805F2CD0B0F5005F29D10AE0CB68D1E915
:101B20000121206800F050FD2068816841F07701B4
:101B300009E0CB68D1E90121206800F045FD20686B
:101B4000816841F48041816011E0CA684968206879
:101B500000F04CFD5021206807E016E0CA68496893
:101B6000206800F054FD6021206800F037FD84F803
:101B70003D50002084F83C0070BDCA684968206868
:101B800000F034FD40212068EFE72268014610464E
:101B9000EBE7704770B50446006801694FF0000537
:101BA000C943890715D4C168C943890711D4E91EFF
:101BB000016101202077206880698007204602D0DB
:101BC000FFF7E7FF04E000F098F8204600F096F8F1
:101BD000257720680169C943490717D4C168C943FB
:101BE000490713D46FF004010161022020772068B7
:101BF000806910F4407F204602D0FFF7CAFF04E05E
:101C000000F07BF8204600F079F82577206801691C
:101C1000C943090716D4C168C943090712D46FF034
:101C200008010161042020772068C06980072046F0
:101C300002D0FFF7AEFF04E000F05FF8204600F0AE
:101C40005DF8257720680169C943C90617D4C168C2
:101C5000C943C90613D46FF0100101610820207731
:101C60002068C06910F4407F204602D0FFF791FF42
:101C700004E000F042F8204600F040F825772068A4
:101C80000169C943C90708D1C168C943C90704D15B
:101C9000891E0161204600F033F820680169C943BC
:101CA000090609D4C168C943090605D46FF080014B
:101CB00001612046FFF776FE20680169C9434906A5
:101CC00009D4C168C943490605D46FF040010161D8
:101CD000204600F021F820680169C94389060BD429
:101CE000C168C943890607D46FF02001016120460D
:101CF000BDE87040FFF757BE70BD704770470000E9
:101D00000349884203D102210248FFF799BA70477C
:101D100070180020000C01407047704710B5044651
:101D20000068416994F83D20C1F3C011212A0BD10C
:101D300051B1416921F080014161606B08B1FEF74A
:101D4000BDFE204600F0F4FC2068416994F83E2076
:101D5000C1F38011222A0BD151B1416921F0400118
:101D60004161A06B08B1FEF7A9FE204600F0C8FC57
:101D7000002010BD70470000F8B5026804461068E6
:101D8000D168536910F00F0F4FF0000554D003F0E5
:101D9000010601F4907737435FD0C20705D0CA052A
:101DA00003D5226C42F001022264420705D5DA070E
:101DB00003D0226C42F002022264820705D5DA07C2
:101DC00003D0226C42F004022264020707D501F01E
:101DD0002002324303D0226C42F008022264226CBB
:101DE000002A35D0800604D5880602D5204600F0AA
:101DF000A8FC20684069216CC0F3801001F0080144
:101E00000143204625D000F07BFC2068416949064B
:101E10001BD5416921F040014161A06BA8B158492F
:101E20004163A06BFEF76EFE002811D0A06B416BE2
:101E300001B0BDE8F040084783060ED58B060CD5EF
:101E40002046BDE8F84000F07CBC2046FFF792FF3A
:101E5000F8BDFFF78FFF2564F8BD266B2023012E08
:101E600052D1C60650D5CE064ED5106850680090A7
:101E7000506940062AD5A16B086840680004000C30
:101E8000EAD0A68D8642E7D9E0858869202818D057
:101E9000D06820F48070D0602068416921F0010191
:101EA00041612068416921F04001416184F83E3080
:101EB00025632068C16821F01001C160A06BFEF7A6
:101EC000FDFDA08DE18D401A81B219E0A08DE18D5C
:101ED000401A81B2E08D0028BED00029BCD0D06865
:101EE00020F49070D0602068426922F001024261C3
:101EF00084F83E3025632068C26822F01002C26078
:101F00002046FFF70AFFF8BD05062BD50D0629D59B
:101F100094F83D002128F6D1A068B0F5805F01D18A
:101F20002069B0B1206A411C2162216800784860B4
:101F3000E08C401E0004000CE084E4D12068C168FD
:101F400021F08001C1602068C16841F04001C1609A
:101F5000F8BD206A0088C0F308005060206A801C29
:101F60002062E5E74006F3D54806F1D5D168204662
:101F700021F04001D16084F83D3000F014F9F8BD43
:101F80003326000870B5040004D094F83D00002505
:101F900010B106E0012070BD84F83C50204600F0EE
:101FA00023F8242084F83D002068C16821F4005102
:101FB000C160204600F020FC2068016921F49041B6
:101FC00001612068416921F02A0141612068C168EE
:101FD00041F40051C1602564202084F83D0084F85C
:101FE0003E00002070BD0000F0B585B0002406461C
:101FF000009401940294039400682D49884254D1BE
:102000002C48816941F480418161816901F48041FA
:102010000491816941F0040181618069022500F029
:10202000040004904FF40070CDE900050320224F16
:10203000039069463846FFF707F868028DE83100DB
:1020400069463846FFF700F81D4D1C488027C5E952
:102050000004C5E9024720202C61C5E90540284657
:10206000EC61FEF70BFF08B1FEF79CFBB5636E62F7
:10207000134D12484435143801C5102091C510483D
:1020800045F8104944306C61AC61EC61FEF7F6FE36
:1020900008B1FEF787FB75630022012125206E62DF
:1020A000FFF748F92520FFF737F905B0F0BD00002C
:1020B0000038014000100240000801405800024072
:1020C000CC39002090F83E30202B0ED159B152B1BE
:1020D00090F83C30012B08D0012380F83C300023DD
:1020E000036300F0E5BB0120704702207047704792
:1020F000704700002DE9F843044690F83D001F4664
:1021000016460D4620284CD1C5B1BEB194F83C000E
:10211000012846D0012084F83C004FF00008C4F8A4
:102120004080212084F83D00FFF798F8A68481467E
:10213000E684A068B0F5805F03D004E00120BDE82C
:10214000F883206928B12E465FF0000584F83C80B2
:102150000EE00026FAE78021204600F0E1FBA0B95E
:10216000AEB116F8010B21684860E08C401EE08497
:10217000E08C4B464FF0000200970028EBD14FF067
:102180004001204600F0CCFB30B10320D7E735F802
:10219000020BC0F30800E6E7202084F83D00002091
:1021A000CDE70220CBE77047FEE700003EB50021F7
:1021B0001148009101910F4A02910260012481604F
:1021C000047301754FF460220461C2614160FEF73F
:1021D000CFFB08B1FEF7E6FA1020CDE90004062097
:1021E000029069460448FEF745FB002801D0FEF73F
:1021F000D9FA3EBD00240140401800200D4808B522
:10220000416941F0010141614069002200F0010093
:10221000009001210E20FFF78DF80E20FFF77CF8CB
:10222000002201210F20FFF785F8BDE808400F20AC
:10223000FFF772B80010024030B585B00024134893
:102240000094019402940394816941F00801816132
:10225000816901F008010491816941F00401816103
:1022600080690B4D00F004000490002202212846F2
:10227000FEF7EEFF02210120CDE90010CDE9024179
:1022800069462846FEF7E0FE05B030BD001002406A
:10229000000C014010B586B0002418480094019449
:1022A00002940394049414490594016041F61F417B
:1022B000C0E9011442F20F71C0E903148021816169
:1022C000FFF7B0FB08B1FEF76DFA4FF480500090B5
:1022D00069460A48FFF7F2FB08B1FEF763FA049477
:1022E00004A906480594FFF75FFB002801D0FEF71C
:1022F00059FA06B010BD000000040040701800201C
:1023000010B50E4C0C480C2120604FF4E130606099
:102310000020A060E060C4E90401A061E061204603
:10232000FFF730FE08B1FEF73DFA2068C16841F0C2
:102330001001C16010BD0000003801408839002044
:10234000FEE7FEE770470000064A0021D16106491A
:102350000A6942F002020A614861086940F04000DF
:1023600008617047200000200020024010B50023C3
:1023700006E000BF30F8024B21F813405B1C9BB213
:102380009342F7D310BD00002DE9F74F1546009C8E
:102390008A46A4F10064B4F5002F04D3BDE8FE4FD3
:1023A00031A000F025BBFEF73BFEC4F30A06E70AA6
:1023B000C6F5806084B2A54200D82C46DFF8B890FC
:1023C0004FF4806B4FF0006000EBC72080465A4608
:1023D0002949FFF7CBFF00204FF6FF7206E03318C4
:1023E00039F81310914203D1401C80B2A042F6D3B9
:1023F000A0422CD24046FFF7A7FF4CF25030FEF728
:102400000FFA1E48016921F00201016100204946CE
:1024100007E000BF3AF810208319401C21F8132070
:1024200080B2A042F6D340465A46134900F028F83D
:10243000A54214D060000090281B0AEB440A002635
:1024400085B25C467F1CA542BCD82C46BAE74CF24C
:102450005030FEF7E5F9224651460098E6E7BDE820
:10246000FE4FFEF793BD000057726F6E6720416408
:1024700064726573730D0A00400000200020024062
:102480002DE9F04116460F46054600240AE000BF3C
:1024900037F81420002329460120FEF781FD641C33
:1024A000A4B2AD1CB442F3D3BDE8F0817047FEF78F
:1024B000DBBE30B595B028216846FDF77EFE1421BD
:1024C0000AA8FDF77AFE18210FA8FDF776FE012174
:1024D0000804CDE900100025029502240491CDE9FD
:1024E00007404FF4E01009906846FFF7B7F808B1CD
:1024F00072B6FEE70AA90F2081E831004FF4806030
:10250000CDE90D0502210AA8FEF7BCFF08B172B69D
:10251000FEE74FF4004011900F940FA8FEF73CFF28
:10252000002801D072B6FEE715B030BD704700003C
:102530000148FFF72FBB000070180020F0B50268BB
:102540001C4B1D4D1D4E1E4F1E4C4FF0804C984293
:1025500009D0A04207D0604505D0A84203D0B042C0
:1025600001D0B84204D122F0700E4A6842EA0E024D
:10257000984209D0A04207D0604505D0A84203D0B8
:10258000B04201D0B84203D122F44075CA682A4350
:102590004D6922F080022A4302608A68C2620A689A
:1025A0008262984201D0A04201D1096901630121F0
:1025B0004161F0BD002C01400004004000080040D3
:1025C000000C00400034014010B5846842EA032248
:1025D00024F47F440A432243826010BD826822F0C3
:1025E00070020A4342F007018160704710B5036A28
:1025F000046A24F001040462846924F0F00444EACB
:10260000021423F00A020A438461026210BD10B56D
:10261000036A23F0100303628369046A23F470439E
:1026200043EA023224F0A00343EA0111826101620D
:1026300010BD10B5406A0021C185C184FFF79AFB27
:1026400010BD70B5446A2068406994F83D10C0F32D
:10265000C0100025212904D118B1E584204600F0DE
:1026600067F82068406994F83E10C0F38010222972
:1026700004D118B1E585204600F042F8206C40F006
:10268000100020642046FFF775FB70BD10B50146B1
:10269000406A0968096889061BD40021C185016860
:1026A000CA6822F48072CA6001684A6922F0010295
:1026B0004A6101684A6922F040024A61202180F89B
:1026C0003E10016B012904D10168CA6822F0100292
:1026D000CA60016B012902D0FFF709FD10BD818D91
:1026E000FFF71BFB10BD10B5406A016B012902D03A
:1026F000FFF7FEFC10BD818D4908FFF70EFB10BDF2
:102700000168CA6822F49072CA6001684A6922F0BE
:1027100001024A61016B012904D10168CA6822F0F3
:102720001002CA60202180F83E100021016370472A
:102730000168CA6822F0C002CA60202180F83D10FA
:10274000704708B590F83E10222901D0022008BD3C
:1027500082684FF480539A4201D1016921B1816AA4
:102760009A421BD04AB10AE00268816A5268C2F3F9
:1027700008020A80816A891C08E0026972B1026855
:10278000526802F07F020A70816A491C8162C18D21
:10279000491E0904090CC18503D019E0026852687A
:1027A000F1E70168CA6822F02002CA600168CA68BD
:1027B00022F48072CA6001684A6922F001024A610B
:1027C000202180F83E10016B012903D0FFF78FFC18
:1027D000002008BD002101630168CA6822F01002D0
:1027E000CA6001680A68D20602D50A684968009181
:1027F000818DFFF792FAEBE770B504460068016936
:10280000E26821F44051114301612169A068084345
:10281000616908432168CA6841F20C639A43024324
:10282000CA6020684169A26921F440711143416185
:102830001E492068884202D1FEF7CAFE01E0FEF779
:10284000B7FE00EBC00101EB00126068642180005C
:10285000B2FBF0F3B3FBF1F36FF018067343B2FB76
:10286000F0F5B2FBF0F605EB8305322303EB05151B
:10287000B5FBF1F5B6FBF1F605F0F00505EB061535
:10288000B2FBF0F6B2FBF0F0B0FBF1F06FF0180223
:10289000504306EB800003EB0010B0FBF1F0216821
:1028A00000F00F002844886070BD0000003801402F
:1028B00038B58162828500251346044605642220CE
:1028C00084F83E00A26B13489062A26B1248D0625B
:1028D000A26B12481063A06B0A4645632168A06B87
:1028E000091DFEF709FB206801684168009184F822
:1028F0003C50C16841F48071C1602068416941F079
:10290000010141612068416941F0400141610020BD
:1029100038BD00008D260008E72600084326000881
:102920002DE9F041984617460E460446069D1DE0E7
:10293000681C1BD02DB1FEF791FCA0EB0800A8424B
:1029400014D92068C16821F4D071C1602068416940
:1029500021F001014161202084F83D0084F83E000F
:10296000002084F83C000320BDE8F0812068006866
:1029700036EA000004D00020B842D9D00020F3E7A6
:102980000120F9E7F8B5144800680168C943C90691
:102990001DD401680026406800900F48FFF7BEF97B
:1029A0000E480068406841F26805281A0C4C82B253
:1029B0000C4922800C48FDF7E7FB21880948FDF708
:1029C000FCFB26802A4607490348FFF77BFBBDE84E
:1029D000F8400148FFF7D0B988390020CC390020F1
:1029E00008000020B818002020290020FEE7000081
:1029F0000FB4054B10B503A9044A029800F0DAF8A9
:102A000010BC5DF814FB0000E53200081C0000203B
:102A10000907090E002804DB00F1E02080F800140B
:102A2000704700F00F0000F1E02080F8141D70479F
:102A300002E008C8121F08C1002AFAD17047704787
:102A4000002001E001C1121F002AFBD170470000E5
:102A50002DE9FF5FDDE90220010DDDF838B002430A
:102A600018D044F61050A1F2FF3141430D140F98D5
:102A7000012820D0A5EB0B00401C5FEA000A4FF0B4
:102A80000004474EDFF81C91A046504616D5CAF107
:102A9000000728E00F98012443A2012808D0002154
:102AA00000980F9BC0E90021C0E90243BDE8FF9FE9
:102AB0006FEA0B01F4E7CBF10000DEE7074612E016
:102AC000F80707D02246334640464946FDF734FC16
:102AD000804689462246334610461946FDF72CFCAF
:102AE00004460E467F10002FEAD1DDE90201BAF15B
:102AF000000F42464B4602DAFDF71EFC01E0FDF7EF
:102B00008DFC04460E460022284BFDF7D3FD03D86A
:102B10004FF0FF30014607E00022254B20463146AA
:102B2000FDF763FBFDF7AEFD102409E0002C0ADB86
:102B30000A220023FDF7F7FC019B30321A55641E70
:102B400050EA0102F2D1641C019AC4F11103144449
:102B50000F9A012A03D0012208430DD10AE008434D
:102B600004D000204FF0110B0F9080E7A3EB0B0572
:102B70006D1E0DE05B4504DD4FF0000205F101051F
:102B800004E003DA4FF00002A5F10105002AECD0C1
:102B900000980F99C0E90231C0E9004586E70000BE
:102BA000000024400000F03F300000000000F0432F
:102BB0000000E03F2DE9FF4F95B09B468946064651
:102BC00000250FE2252877D100242746F84A012165
:102BD000059400E0044316F8013F203B01FA03F09E
:102BE0001042F7D130782A2811D06FF02F033078B7
:102BF000A0F13002092A16D8059A44F0020402EB2B
:102C0000820203EB42021044761C0590EFE759F86C
:102C1000042B0592002A03DA504244F40054059034
:102C200044F00204761C30782E2816D116F8010FD5
:102C300044F004042A280DD06FF02F023078A0F160
:102C40003003092B09D807EB870302EB4303C718AE
:102C5000761CF3E759F8047B761C30786C280FD08B
:102C600006DC4C2817D068280DD06A2814D104E05F
:102C7000742810D07A280FD10DE044F400140AE033
:102C800044F4801401E044F440147278824202D18A
:102C900004F58014761C761C307866280BD013DC83
:102CA000582877D009DC002875D04528F6D046286A
:102CB000F4D047281AD19DE118E0632835D0642864
:102CC00079D0652812D195E1702873D008DC672887
:102CD000F1D069286FD06E280DD06F2806D1B5E0ED
:102CE00073282CD0752875D0782874D05A46179937
:102CF00090476D1C75E1C4F30250022809D00328E7
:102D00000DD0D9F8001004280DD00D6009F1040988
:102D100067E1D9F80010EA17C1E90052F6E7D9F8DF
:102D200000100D80F2E70D70F0E719F8041B8DF824
:102D3000001000208DF80100EA46012003E059F858
:102D400004AB4FF0FF3061074FF0000102D40DE0FB
:102D500008F101018846B9420FDA8045F8DB1AF81C
:102D600008100029F4D108E008F1010188468142E9
:102D7000FADB1AF808100029F6D105985B46A0EB9B
:102D8000080721463846179A00F094FA284400EBC9
:102D9000080507E04DE029E10DE01AF8010B5A465D
:102DA00017999047B8F10108F7D25B46214638469B
:102DB000179A13E142E00A220092C4F302524FF044
:102DC000000A022A08D059F804CB032A4FEAEC7112
:102DD0000AD00DE029E02AE009F1070121F00702FD
:102DE000F2E802C1914609E00FFA8CFC4FEAEC715F
:102DF000042A03D14FFA8CFC4FEAEC71002907DA60
:102E00000A460021DCF1000C61EB02012D2202E0F8
:102E1000220504D52B228DF80420012203E0E207CD
:102E200001D02022F7E7904659E00A2102E0102263
:102E30000DE010214FF0000A00910BE010224FF03E
:102E4000000A44F004040827009203E008224FF02F
:102E5000000A0092C4F30252022A05D059F804CBAA
:102E60000021032A08D009E009F1070121F0070237
:102E7000F2E802C1914605E01FFA8CFC042A01D158
:102E80000CF0FF0C4FF00008220728D5702806D060
:102E9000009B83F0100353EA0A0305D00EE04022A2
:102EA0008DF80420012208E05CEA010206D03022FD
:102EB0008DF804208DF8050002229046009B83F0D7
:102EC000080353EA0A030AD15CEA010201D162074E
:102ED00005D530228DF804204FF001087F1E5828B8
:102EE00004D034A003900EA802900DE036A0F9E7BC
:102EF00053466046009AFDF716FB84460398825CB1
:102F00000298401E029002705CEA0100F0D1029823
:102F100006A9081A00F1200A600702D524F48034BB
:102F200000E00127574502DDA7EB0A0000E0002082
:102F300000EB0A01009005984144401A0590E00317
:102F400006D45B462146179A059800F0B3F905446C
:102F5000002706E001A85A46C05D179990476D1CEE
:102F60007F1C4745F6DBE0030CD55B462146179AEC
:102F7000059800F09FF9054404E030205A4617995F
:102F800090476D1C0099481E00900029F5DC08E070
:102F9000029802995A460078491C02911799904765
:102FA0006D1CBAF10001AAF1010AF1DC65E1000033
:102FB000092801003031323334353637383961620F
:102FC00063646566000000003031323334353637D3
:102FD00038394142434445460000000000F058F9AA
:102FE0000544761C307800287FF4ECAD19B02846F3
:102FF000BDE8F08F620700D4062709F1070222F02E
:10300000070CFCE80223E14603F000485FEA080CE5
:1030100002D00FF2702C0DE05FEA045C02D50FF2D3
:10302000682C07E05FEAC47C02D00FF2602C01E05C
:10303000AFF2700C4FF0FF3823F00043CDF850C0D2
:1030400065280CD006DC452809D046281DD0472825
:103050003DD13DE0662818D067287ED138E00021B8
:10306000112F01DB112000E0781CCDE9000106A939
:103070000EA8FFF7EDFCDDE90F010E9A0391002188
:10308000009207F1010A04914DE04FF000400097D3
:10309000CDE9011006A90EA8FFF7DAFCDDE90F0261
:1030A00003920E9B11990022DDF80CA0009304926C
:1030B00011B9791C00EB010AB7EB0A0004D4C0F186
:1030C000FF3007F1010A0490AAEB0700019044E0E9
:1030D000012F00DA01270021112F01DD112000E06E
:1030E0003846CDE9000106A90EA8FFF7B1FCDDE9DD
:1030F0000F010E9A0391002104910092BA46210714
:103100000CD40399514500DA8A46BAF1010F05DD66
:10311000009AAAF10101515C302908D0B84202DAC4
:1031200010F1040F06DA0121CDE9011015E0AAF132
:103130000101E9E7002805DC049901440491AAEBA8
:10314000000102E0411C514500DD8A460499401A05
:10315000401C01904FF000400290200704D40198D9
:10316000504501DBCDF8048000208DF84F00029817
:103170000DF14F07B0F1004F25D02B200E90029893
:103180004FF0020800280CDA404202902D200E90E9
:1031900007E00A210298FDF7B0F93031029007F8F4
:1031A000011DB8F10001A8F10108F2DC0298002825
:1031B000EFD1791E0E980870307800F0200040F0B2
:1031C000450007F8020D12A8C01B00F1070814986B
:1031D000007800B1012000EB0A01019801EBE071D9
:1031E00005984144401A401E0590E00306D45B4612
:1031F0002146179A059800F05DF805441498007868
:1032000018B15A46179990476D1CE00324D55B46C8
:103210002146179A059800F04DF805441CE00498E3
:10322000002807DBDDE90301884203DD0098405CEC
:10323000179901E0179930205A469047049805F1F4
:103240000105401C04900198401E019004D12E20DD
:103250005A46179990476D1CBAF10001AAF1010A6C
:10326000DDDC05E017F8010B5A46179990476D1CF5
:10327000B8F10001A8F10108F4DC5B462146179A79
:103280000598ABE62D0000002B0000002000000098
:103290002DE9F041044600251E461746880404D453
:1032A00005E039462020B0476D1C641EF9D528463C
:1032B000BDE8F0812DE9F041044600251E46904608
:1032C000C80301D5302700E02027880404D505E095
:1032D00041463846B0476D1C641EF9D52846BDE806
:1032E000F081000004490A685206FCD5024AC1B2C6
:1032F000121D11607047000000380140FDF7BCFF4F
:10330000FFF7D7F8FEF798FFFEF778FFFEF74EFFBE
:10331000FEF7C0FFFEF7F4FF414C0020414D424E46
:10332000DFF80891E0804FF080484FF4806780B26A
:10333000424646F820504B463DA0FFF759FBE08837
:10334000401C80B2E080B842F1D341F268042246CA
:1033500039493A48FEF7B6FEDFF8E480394F3A4E75
:103360004FF47A794FF400654FF6FF7A0221404618
:10337000FDF766FF4846FDF7F7FD0222284932486F
:10338000FCF726FF78B326490222891C2E48FCF759
:103390001FFF48B322490222091D2B48FCF718FFE2
:1033A0000028E3D129A0FFF723FB6420FDF7DCFD13
:1033B000DFF8BCB02A46311D5846FEF7E5FF21462E
:1033C0002148FCF7FAFE2A461F495846FEF7CEFF71
:1033D00053462A461C491948FEF78CFE21461A48D6
:1033E000FCF7EBFEC2E700E007E021461648FCF7D9
:1033F000E4FE6420FDF7B8FD0EE01EA0FFF7F8FA2A
:103400006420FDF7B1FD2A46311D3846FEF7BCFFAA
:1034100021460D48FCF7D1FE2A460B493846D5E730
:1034200000000020FA7EAA3F40080020DF4FF53F51
:1034300025660D0A00000000B81800208839002019
:10344000000C014000D00708202900205772697441
:103450006520746865206C617374203130323420CB
:10346000646563696D616C732121210D0A000000A0
:1034700000D807085772697465207468652066690A
:10348000727374203130323420646563696D616C0D
:10349000732121210D0A000000000000000000003F
:1034A00001020304060708090000000001020304EA
:1034B000D03400080000002020000000302A00085E
:1034C000F034000820000020583E0000402A000888
:1034D00001010102010300000000000001000000E2
:1034E00010000000000000000024F40000000000B4
:0400000508000131BD
:00000001FF
