:020000040800F2
:100000008814002045010008971D0008C519000844
:10001000951D0008D5070008B12200080000000067
:10002000000000000000000000000000BD1E0008ED
:100030001B08000800000000991D0008BF1E0008F2
:100040005F0100085F0100085F0100085F01000810
:100050005F0100085F0100085F0100085F01000800
:100060005F0100085F0100085F0100085F010008F0
:100070005F0100085F010008D9070008E5070008D4
:100080005F0100085F0100085F0100085F010008D0
:100090005F0100085F0100085F0100085F010008C0
:1000A0005F0100085F0100085F0100085F010008B0
:1000B0005F0100085F0100085F0100085F010008A0
:1000C0005F0100085F0100085F0100085F01000890
:1000D0005F010008492200085F0100085F01000875
:1000E0005F0100085F0100085F0100085F01000870
:1000F0005F0100085F0100085F0100085F01000860
:100100005F0100085F0100085F0100085F0100084F
:100110005F0100085F0100085F0100085F0100083F
:100120005F0100085F0100085F0100085F0100082F
:10013000DFF80CD000F03CFB00480047112C000811
:10014000881400200648804706480047FEE7FEE77F
:10015000FEE7FEE7FEE7FEE7FEE7FEE7FEE7FEE777
:10016000211F000831010008202A04DB203A21FA6F
:1001700002F00021704721FA02F3D040C2F12002C0
:10018000914008431946704740EA01039B0703D09A
:1001900009E008C9121F08C0042AFAD203E011F8C6
:1001A000013B00F8013B521EF9D27047D2B201E088
:1001B00000F8012B491EFBD270470022F6E710B56C
:1001C00013460A4604461946FFF7F0FF204610BDC5
:1001D0002DE9FE4F804681EA0300C00F0C460090D7
:1001E00021F0004123F00045B8EB0200A94105D2FF
:1001F0004046214690461C460B46024623F00040EE
:10020000104347D0270DC7F30A00C3F30A510290E9
:10021000401A019040286BDAC3F3130040F4801BAE
:100220000098924620B10023D2EB030A63EB0B0B3C
:1002300001985946C0F14002504600F0D4F90646F4
:100240000D4650465946019A00F0DCF910EB0800C3
:100250006141002487EA115284EAE7731A4340D0CF
:10026000009A62B3019A012A4FEA075215DC001B7B
:1002700061EB02014FF0004202EA0752CDE9004271
:10028000001C41F5801132462B4600F013FA03B0F2
:10029000BDE8F08F40462146F9E7001B61EB020103
:1002A000001C41F5801300185B412018A2F50017CF
:1002B00047EB030140EAD570B6196D4111E06D08B6
:1002C0004FEA360645EAC0754FEA0752001B61EB5C
:1002D0000201001C41F5801149084FEA3000001965
:1002E000514132462B4603B0BDE8F04F00F0D3B980
:1002F0000098012240000023D0EB020263EBE07380
:10030000009821464FEAE074B8EB000061EB04016D
:10031000E9E783F000435BE781F0004158E72DE90E
:10032000FE4F81EA030404F0004421F000410094F0
:100330004FF0000B23F0004350EA01045ED052EA74
:1003400003045BD0C3F30A54C1F30A552C44A4F24E
:10035000F3340194A0FB0254C1F3130141F4801162
:10036000C3F3130343F4801301FB024400FB034E69
:10037000840A970A44EA815447EA8357A4FB076832
:1003800002958D0A05FB07854FEA932C04FB0C545C
:100390002705029D4FEA065847EA1637B5EB0805D0
:1003A0006EEB070C870E920E47EA811742EA831222
:1003B000A7FB0201B6EB0B0164EB00042B0D43EA33
:1003C0000C335E1844EB1C50DA465146E7FB020141
:1003D000C5F313044FEA0B3343EA14534FEA0432D4
:1003E000019C43EA0603A4F10C040294009CCDE9AD
:1003F00000B400F05FF903B0BDE8F08F00200146C3
:10040000F9E72DE9F04D81EA030404F0004B21F0F7
:10041000004514464FF0000A23F0004150EA05025F
:1004200020D054EA01021DD0C5F30A570246C5F395
:100430001303C1F31300C1F30A5640F4801543F4CB
:100440008013A7EB0608101BD64608F2FD3873EBA5
:10045000050002D308F1010801E092185B41B8F1F0
:10046000000F03DA00200146BDE8F08D00204FF4B4
:100470008011064684460EE0171B73EB050705D373
:10048000121B63EB050306434CEA010C49084FEAD3
:10049000300092185B4150EA0107EDD152EA0300A7
:1004A00012D082EA040083EA0501084305D0101B3C
:1004B000AB4106D20122002306E000224FF00043A8
:1004C00002E06FF0010253101AEB06004CEB0851EA
:1004D00010EB0A0041EB0B01BDE8F04D00F0DBB87A
:1004E0000EB540F2334102910021CDE900110A46D8
:1004F0000B4600F0DFF803B000BD00F0004230F022
:1005000000400AD0C10D01F56071C0F3160042EA47
:100510000151C2084007114370470020014670474F
:1005200001F0004330B421F0004150EA010206D04E
:100530000A0DA2F56072C1F31301002A02DC30BC7F
:1005400000207047440F44EAC104C100E01830BCE9
:1005500000EBC25000F068B830B50B4601460020F1
:100560002022012409E021FA02F59D4205D303FA75
:1005700002F5491B04FA02F52844151EA2F10102F6
:10058000F1DC30BD2DE9F05F0546002092469B4628
:1005900088460646814640241BE028464146474699
:1005A0002246FFF7E1FD53465A46C01A914110D347
:1005B00011461846224600F016F82D1A67EB01087E
:1005C0004F4622460120002100F00DF817EB0009EC
:1005D0004E41201EA4F10104DFDC484631462A4684
:1005E0004346BDE8F09F202A04DB203A00FA02F1DE
:1005F000002070479140C2F1200320FA03F3194311
:1006000090407047202A06DBCB17203A41FA02F0CF
:1006100043EAE07306E041FA02F3D040C2F120025F
:1006200091400843194670470029A8BF7047401CF5
:10063000490008BF20F00100704710B4B0FA80FCF8
:1006400000FA0CF050EA010404BF10BC704749B135
:10065000CCF1200421FA04F411FA0CF118BF0121A5
:1006600021430843A3EB0C01CB1D4FEA00614FEA85
:10067000102042BF002010BC704700EBC350104454
:100680000029A4BF10BC7047401C490008BF20F0DF
:10069000010010BC704710B5141E73F1000408DA95
:1006A000401C41F1000192185B411A4301D120F036
:1006B000010010BD2DE9F04D92469B4611B1B1FAF3
:1006C00081F202E0B0FA80F220329046FFF78BFF11
:1006D00004460F4640EA0A0041EA0B0153465A46D7
:1006E000084313D0114653EA010019D0C8F1400263
:1006F0005046FFF739FD05460E46504659464246DC
:10070000FFF771FF084305D0012004E02046394679
:10071000BDE8F08D0020054346EAE0762C433743E0
:100720000A986305E40AA0EB08000022FD0A44EAE7
:1007300047540A3002D500200146E9E701051019A7
:100740006941DDE9084500196941BDE8F04DA2E7BE
:10075000C1F30A52C1F3130140F2FF3341F4801197
:100760009A4202DA00200146704740F233439A422F
:10077000A2F2334202DC5242FFF7F6BCFFF733BF6E
:1007800030B5041E71F1000404DB4FF00044404218
:1007900064EB0101141E73F1000405DB1C464FF0ED
:1007A0000043524263EB0403994208BF904230BDBC
:1007B000064C074D06E0E06840F0010394E80700AE
:1007C00098471034AC42F6D3FFF7B6FC842C0008EF
:1007D000A42C0008FEE70000014800F0DDB800008E
:1007E00040100020014800F0D7B80000FC0F0020A6
:1007F00030B590F840500124AC40C56B6C60046883
:1008000063604368102B036803D099600068C2607E
:1008100030BD9A600068C16030BD704772B6FEE7B7
:1008200010B590F821100022022905D0042181631F
:1008300080F82020012010BD01680B6823F00E0312
:100840000B6001680B6823F001030B6090F84030E7
:10085000C46B012101FA03F3636080F8211080F872
:100860002020104610BD00002DE9F05F90F8211007
:100870000024022903D004218163012485E001685A
:100880000A6822F00E020A6001680A6822F001027A
:100890000A603F4E3E4FB215DFF8F4C0DFF8F0902B
:1008A000DFF8ECA0DFF8E8B0DFF8E4E00168783FBB
:1008B00013011502ACF1640CA9F15009AAF13C0A2C
:1008C000ABF1280BAEF1140E4FF48018B14227D9CA
:1008D000B9420ED0614512D049451DD0514518D0BE
:1008E000594518D0714501D1424615E0294EB14213
:1008F00001D1012210E0274E1436B14201D110225D
:100900000AE0244E2836B14206D0224A3C329142B7
:1009100001D11A4600E02A461E49091F0A602BE051
:10092000B94213D0614517D0494522D051451DD059
:1009300059451DD0714501D142461AE0B14202D15C
:100940004FF0807215E0134EB14201D1012210E048
:10095000104E1436B14201D110220AE00D4E283655
:10096000B14206D00B4A3C32914201D11A4600E016
:100970002A46074980394A60012180F82110002168
:1009800080F82010416B01B188472046BDE8F09FF8
:1009900080000240080402402DE9F05FC16B0A6844
:1009A00001680B68046C4FF0040808FA04F8844DE1
:1009B000844E854FDFF814C2DFF81492DFF814A2DA
:1009C000DFF814B2DFF814E218EA020F65D05FEA2C
:1009D000437862D50A68920603D40A6822F00402BA
:1009E0000A60DFF8F0814FF48062016808F11408B2
:1009F00013011402414524D9A9420DD0B1420FD0B0
:100A0000B9421AD0614515D0494515D0514501D19B
:100A1000120312E0594501D104220EE0714501D1C3
:100A200040220AE06D4D1435A94206D06B4A2832A7
:100A3000914201D11A4600E022466749091F0A6027
:100A400029E0A94213D0B14215D0B94220D0614566
:100A50001BD049451BD0514502D14FF4800217E00D
:100A6000414502D14FF0806212E0594501D1042284
:100A70000EE0714501D140220AE0584D1435A942DB
:100A800006D0564A2832914201D11A4600E0224649
:100A90004B4908394A60C16A71E04FF0020808FA10
:100AA00004F818EA020F70D05FEA83786DD50A68FF
:100AB000920606D40A6822F00A020A60012180F830
:100AC0002110DFF810814FF40072016808F114085A
:100AD00013011402414524D9A9420DD0B1420FD0CF
:100AE000B9421AD0614515D0494515D0514501D1BB
:100AF000120312E0594501D102220EE0714501D1E5
:100B000020220AE0354D1435A94206D0334A283256
:100B1000914201D11A4600E022462F49091F0A607E
:100B200029E0A94213D0B14215D0B94220D0614585
:100B30001BD049451BD0514502D14FF4001217E09C
:100B4000414502D14FF0007212E0594501D1022215
:100B50000EE0714501D120220AE0204D1435A94252
:100B600006D01E4A2832914201D11A4600E02246A0
:100B7000134908394A60002180F82010816A002951
:100B80001CD0BDE8F05F0847FFE70825A5401542E7
:100B900014D01A0712D50A6822F00E020A6090F8E3
:100BA0004020C36B012101FA02F25A60816380F890
:100BB0002110002180F82010016BE0E7BDE8F09FD4
:100BC000080002401C000240300002404400024085
:100BD000580002406C000240080402401C0402401D
:100BE00030B560B11A4B026814219A4209D2194BF0
:100BF0001344B3FBF1F18900016417490AE00120B5
:100C000030BD134B5B421344B3FBF1F18900016427
:100C10000F490839C163022180F82110136843F697
:100C2000F0718B43F0E901142143D0E902452C43D4
:100C300021430469214344692143846921431943C1
:100C4000116000214163012242770177084630BDDF
:100C500008040240F8FFFDBF0000024070B50446E2
:100C600090F82000002501280CD0012084F82000F5
:100C700094F821600020012E06D084F8200002257F
:100C8000284670BD022070BD022684F82160A06352
:100C90002068066826F0010606602046FFF7A8FDDA
:100CA000E06A00282068016802D041F00E0106E0E9
:100CB00021F0040101602068016841F00A0101602F
:100CC0002068016841F001010160D9E770B5044670
:100CD00000F01CF90546601C02D00448007804446A
:100CE00000F014F9401BA042FAD370BD04000020AC
:100CF0002DE9F84FDFF8C891002409F1040A0AF140
:100D0000040B23460F270BF1040ED1E00125A5406B
:100D100006EA0502AA4276D1DFF8A8C14E68A6EB22
:100D20000C0866452BD00DDC032E34D005DC36B321
:100D3000012E19D0022E2FD11BE0112E16D0122E0B
:100D40002AD119E0B8F5881F19D006DCB8F5803F24
:100D500015D0B8F5801F1FD111E0B8F5001F0ED0D7
:100D6000B8F5041F18D10AE0CB6815E0CB681B1D4D
:100D700012E0CB6808330FE0CB680C330CE08B68D3
:100D80002BB1012B4FF0080303D0456104E004238D
:100D900002E0056100E00023FF2A01D8064601E0D9
:100DA00000F104064FEA840501D9A5F12005D6F823
:100DB000008007FA05FC28EA0C0803FA05F548EA62
:100DC0000508C6F800804D68ED0070D53E4DAE694F
:100DD00046F00106AE61AD6924F0030605F0010599
:100DE00000953A4D06EB050CDCF80850A607360FC7
:100DF00007FA06F825EA0805DFF8D480404503D154
:100E00004FF0000825E052E0DFF8C880404502D1ED
:100E10004FF001081DE0DFF8C080404502D14FF0DF
:100E2000020816E0DFF8B480404502D14FF0030815
:100E30000FE0DFF8AC80404502D14FF0040808E035
:100E4000DFF8A080404502D14FF0050801E04FF0E7
:100E5000060808FA06F848EA0508CCF808804D6844
:100E6000D9F80060ED034D4601D5164300E09643E6
:100E70002E604D68DAF80060AD03554601D5164383
:100E800000E096432E604D68DBF80060ED025D46A1
:100E900001D5164300E096432E604D68DEF80060F1
:100EA000AD02754601D5164300E096432E60641CE2
:100EB0000A681646E2407FF429AFBDE8F88F0000CB
:100EC0000004014000001110001002400000014029
:100ED00000080140000C01400010014000140140D6
:100EE00000180140001C01408068084000D001202B
:100EF0007047C26821EA02030A4043EA02410161E5
:100F000070470AB1016170470904FBE70148806836
:100F100070470000040000200248816802781144F4
:100F20008160704704000020074810B5016841F057
:100F300010010160032000F075F80F2000F006F8A2
:100F400000F024F8002010BD0020024070B50D4DC7
:100F500004464FF47A712878B1FBF0F00A49096829
:100F6000B1FBF0F000F0ECFA48B9102C07D20022E7
:100F70002146501E00F036F800206C6070BD012044
:100F800070BD000004000020100000200C4808B5CF
:100F9000816941F001018161816901F001010091E4
:100FA000C16941F08051C161C06900F0805000907A
:100FB0000448416821F0E06141F00071416008BDE2
:100FC0000010024000000140002809DB00F01F0271
:100FD000012191404009800000F1E020C0F800119B
:100FE00070470000F0B40E4B1B680C46C3F302239D
:100FF000C3F10705042D00D90425191D072901D2C5
:10100000002300E0DB1E012606FA05F1491E2140FF
:1010100099409E40761E16403143F0BC01F05AB90B
:101020000CED00E0064900F0070208684FF6FF03E8
:10103000184040EA0220034A10430860704700004D
:101040000CED00E00000FA052DE9F0470F46050021
:1010500061D0434E306800F00700B84209D23068D2
:1010600020F0070038433060306800F00700B842D5
:1010700051D128683B4C810712D5400703D56068E1
:1010800040F4E06060602878000703D5606840F4B1
:10109000605060606068A96820F0F00008436060FC
:1010A0002878C00728D06868012810D02168022855
:1010B00010D0890700292EDA616821F0030101436D
:1010C0006160FFF723FF804641F288390DE0216817
:1010D0008903EFE78901EDE7FFF718FFA0EB0801AF
:1010E000494502D90320BDE8F0876068696800F0CF
:1010F0000C00B0EB810FEFD1306800F00700B84270
:101100000BD9306820F0070038433060306800F0B9
:101110000700B84201D00120E5E72878400705D54F
:101120006068E96820F4E0600843606028780007A0
:1011300006D56068296920F4605040EAC10060600B
:1011400000F038F86168084AC1F30311515CC840E7
:101150000649086006480068FFF7F8FE0020C2E76D
:1011600000200240001002406C2C000810000020FB
:10117000080000200448054900684968044AC1F392
:101180000221515CC840704710000020001002404E
:101190007C2C00080448054900684968044AC1F3EA
:1011A000C221515CC840704710000020001002406E
:1011B0007C2C000812A185B00FC98DE80F0014A087
:1011C000144A006804905168134801F00C03042B82
:1011D00010D0082B0ED1C1F38343C9031DF80300BF
:1011E0000AD5516804AAC1F34041515C0A4A5043F0
:1011F000B0FBF1F005B0704708494843FAE700003A
:1012000002030405060708090A0B0C0D0E0F101047
:10121000010200000010024000127A0000093D00A7
:101220002DE9F84F040070D02078C04DC00749D098
:101230006868C0F38100012807D06868C0F38100A6
:10124000022809D16868C00306D52868800339D50B
:1012500060680028E7D035E06068B0F5803F0BD0CB
:1012600010B1B0F5A02F11D0286820F4803028608C
:10127000286820F4802002E0286840F4803028604C
:10128000606890B1FFF742FE06460AE0286840F425
:1012900080202860F0E700BFFFF738FE801B64283D
:1012A00073D828688003F7D50CE0FFF72FFE0646B9
:1012B00005E000BFFFF72AFE801B6428F0D82868ED
:1012C0008003F7D420789A4E80074FF001094FF041
:1012D000000839D5686810F00C0F07D06868C0F3B3
:1012E0008100022809D16868C00306D428688007F5
:1012F00014D52069012808D110E02069B0B1C6F8E2
:101300000090FFF703FE074605E00AE1FFF7FEFD48
:10131000C01B0228C4D828688007F7D528686169EF
:1013200020F0F80040EAC10028600DE0C6F8008017
:10133000FFF7ECFD074604E0FFF7E8FDC01B0228BD
:1013400023D828688007F7D4207800072CD579485F
:10135000A169D9B1C0F80090FFF7D8FD074604E0B5
:10136000FFF7D4FDC01B02280FD8686A8007F7D5A5
:1013700071484FF4FA510068B0FBF1F0009000BFE3
:101380000098411E0091FAD20EE080E0C0F8008083
:10139000FFF7BCFD074604E0FFF7B8FDC01B0228BD
:1013A00075D8686A8007F7D42078400760D5E86967
:1013B0000027C00008D4E86940F08050E861E8697F
:1013C000012700F0805000905C480168C90513D4E3
:1013D0000168834641F480710160FFF797FD824602
:1013E00006E000BFFFF792FDA0EB0A0064284ED88C
:1013F000DBF80000C005F5D5E06801280AD008B187
:10140000052813D0286A20F001002862286A20F0FD
:10141000040002E0286A40F001002862E06841F21E
:10142000883B98B1FFF772FD82460BE0286A40F0D6
:1014300004002862EEE700BFFFF768FDA0EB0A0199
:1014400059455AD8286A8007F6D50CE0FFF75EFDAB
:10145000824605E0FFF75AFDA0EB0A0159454CD83A
:10146000286A8007F6D41FB1E86920F08050E8614F
:10147000E06988B36968C1F38101022944D0022878
:10148000C6F8608004D0FFF741FD044638E034E040
:10149000FFF73CFD074604E0FFF738FDC01B0228BC
:1014A0002BD828688001F7D4206AB0F5803F05D199
:1014B0006868A16820F4003008436860D4E9080136
:1014C0000843696821F4741108436860C6F86090A5
:1014D000FFF71CFD044606E025E000BFFFF716FD00
:1014E000001B022809D828688001F7D51BE000BF3F
:1014F000FFF70CFD001B022802D90320BDE8F88F7E
:1015000028688001F4D40EE00128F7D06868226AC8
:1015100000F48031914204D1616A00F47010884275
:1015200001D00120EAE70020E8E7000000100240B7
:10153000000042428004424210000020007000403F
:1015400010B5401EB0F1807F01D3012010BD4FF0D7
:10155000E02460610F21601700F0BCFE0020A06154
:1015600007202061002010BD704710B504460068B8
:10157000416994F83D20C1F3C011212A0BD151B12A
:10158000416921F080014161606B08B1FFF748F9C2
:10159000204600F061FD2068416994F83E20C1F3C7
:1015A0008011222A0BD151B1416921F040014161E2
:1015B000A06B08B1FFF734F9204600F035FD00209C
:1015C00010BD7047F8B5026804461068D1685369C9
:1015D00010F00F0F4FF0000554D003F0010601F496
:1015E000907737435FD0C20705D0CA0503D5226C78
:1015F00042F001022264420705D5DA0703D0226CCB
:1016000042F002022264820705D5DA0703D0226C79
:1016100042F004022264020707D501F0200232439F
:1016200003D0226C42F008022264226C002A35D0DA
:10163000800604D5880602D5204600F016FD2068F5
:101640004069216CC0F3801001F00801014320467D
:1016500025D000F0E9FC2068416949061BD54169A5
:1016600021F040014161A06BA8B158494163A06BD2
:10167000FFF7FAF8002811D0A06B416B01B0BDE86C
:10168000F040084783060ED58B060CD52046BDE8F2
:10169000F84000F0EABC2046FFF793FFF8BDFFF7E3
:1016A00090FF2564F8BD266B2023012E52D1C6067B
:1016B00050D5CE064ED5106850680090506940064F
:1016C0002AD5A16B086840680004000CEAD0A68DFA
:1016D0008642E7D9E0858869202818D0D06820F4B0
:1016E0008070D0602068416921F00101416120686B
:1016F000416921F04001416184F83E302563206852
:10170000C16821F01001C160A06BFFF789F8A08DBE
:10171000E18D401A81B219E0A08DE18D401A81B2AD
:10172000E08D0028BED00029BCD0D06820F4907095
:10173000D0602068426922F00102426184F83E30A4
:1017400025632068C26822F01002C2602046FFF7BD
:101750000BFFF8BD05062BD50D0629D594F83D00E5
:101760002128F6D1A068B0F5805F01D12069B0B121
:10177000206A411C2162216800784860E08C401E8C
:101780000004000CE084E4D12068C16821F08001ED
:10179000C1602068C16841F04001C160F8BD206AA5
:1017A0000088C0F308005060206A801C2062E5E7D2
:1017B0004006F3D54806F1D5D168204621F0400116
:1017C000D16084F83D3000F0FBF8F8BD231F00081D
:1017D00070B5040004D094F83D00002510B106E077
:1017E000012070BD84F83C50204600F023F82420EE
:1017F00084F83D002068C16821F40051C160204692
:1018000000F08EFC2068016921F49041016120689C
:10181000416921F02A0141612068C16841F4005109
:10182000C1602564202084F83D0084F83E0000203B
:1018300070BD0000F0B585B0002406460094019408
:101840000294039400682D49884255D12C4881693F
:1018500041F480418161816901F480410491816991
:1018600041F0040181618069264D00F0040004907C
:101870004FF400700090022001900320039069460D
:101880002846FFF735FA2815CDE9000469462846B1
:101890000294FFF72DFA1D4D1B488027C5E900046F
:1018A000C5E9024720202C61C5E905402846EC61C6
:1018B000FFF796F908B1FEF7B1FFB5636E62134DFD
:1018C00011484435143801C5102091C50F4845F81A
:1018D000104944306C61AC61EC61FFF781F908B1EB
:1018E000FEF79CFF75630022012125206E62FFF741
:1018F00079FB2520FFF768FB05B0F0BD00380140FB
:10190000001002400008014058000240FC0F002077
:1019100090F83E30202B0ED159B152B190F83C30A6
:10192000012B08D0012380F83C300023036300F032
:1019300053BC012070470220704770477047000079
:1019400070B5044690F83D00202830D169B362B3E9
:1019500094F83C0001282AD0012084F83C00216240
:10196000A284E28400252564212084F83D00636B75
:1019700010489862636B1048D862636B0F48186315
:10198000606B134645632668606B321DFFF766F98E
:1019900021686FF04000086084F83C50206841697D
:1019A00041F080014161002070BD012070BD022026
:1019B00070BD0000F11F00081F200008331F000841
:1019C00070477047FEE7000070B5164C206820F0A5
:1019D00070402060206840F040502060A515002233
:1019E00029462046FFF78DFA022001F0DDF800229B
:1019F00080212046FFF785FA022001F0D5F8012268
:101A000029462046FFF77DFA022001F0CDF800229A
:101A100029462046FFF775FABDE87040012001F025
:101A2000C3B80000000C014070B5164C206820F0CF
:101A300070402060206840F040502060A5150022D2
:101A400029462046FFF75DFA022001F0ADF8012299
:101A500080212046FFF755FA022001F0A5F8012267
:101A600029462046FFF74DFA022001F09DF800229A
:101A700029462046FFF745FABDE87040012001F0F5
:101A800093B80000000C01402DE9F041194C0025ED
:101A9000206820F070402060206840F00040206006
:101AA000012001F081F80026A715002239462046C2
:101AB000FFF727FA022001F077F801223946204685
:101AC000FFF71FFA6806050E80212046FFF70CFA83
:101AD00008B145F00105012001F066F8761CF6B268
:101AE000082EE2D3002239462046FFF70AFA28469C
:101AF000BDE8F081000C01402DE9F0411A4C06468A
:101B00002046216821F070412160216841F0405158
:101B10002160A71500223946FFF7F3F900253006AA
:101B200001D5012200E0002280212046FFF7E9F9DB
:101B30007006060E022001F037F8012239462046D1
:101B4000FFF7DFF9022001F02FF800223946204686
:101B5000FFF7D7F9022001F027F86D1CEDB2082D30
:101B6000DDD3BDE8F0810000000C014070B5134CDE
:101B7000206820F070402060206840F040502060D5
:101B8000012280212046FFF7BCF9012215022946D7
:101B90002046FFF7B6F9042001F006F80022802164
:101BA0002046FFF7AEF9042000F0FEFF294620464C
:101BB000BDE870400022FFF7A4B90000000C01400E
:101BC00070B5144C206820F070402060206840F010
:101BD00000402060A515002229462046FFF791F914
:101BE000002280212046FFF78CF9042000F0DCFF62
:101BF000012229462046FFF784F9042000F0D4FF93
:101C0000012280212046FFF77CF9BDE870400420C6
:101C100000F0CABF000C014070B5264CC8252068F2
:101C200020F070402060206840F040502060012289
:101C300080212046FFF765F9012000F0B5FFA615C9
:101C4000002231462046FFF75CF9012000F0ACFF8E
:101C5000206820F070402060206840F00040206044
:101C600005E06D1EEDB2012000F09EFFD5B1012010
:101C700000F09AFF80212046FFF736F90028F0D1C6
:101C8000012000F091FF012231462046FFF739F98B
:101C9000012000F089FF002231462046FFF731F98C
:101CA000002070BD002231462046FFF72AF90120AE
:101CB00070BD0000000C01400D4808B5416941F0BD
:101CC000010141614069002200F001000090012102
:101CD0000E20FFF787F90E20FFF776F90022012189
:101CE0000F20FFF77FF9BDE808400F20FFF76CB920
:101CF0000010024070B586B000241448009401948E
:101D000002940394816941F008018161816901F0C5
:101D100008010491816941F00401816180690C4EE0
:101D200000F004004FF4C1750490002229463046AB
:101D3000FFF7E7F801200095CDE9010402200390A8
:101D400069463046FEF7D4FF06B070BD0010024071
:101D5000000C014010B50E4C0C480C2120604FF4D3
:101D6000E13060600020A060E060C4E90401A0618F
:101D7000E0612046FFF72CFD08B1FEF74FFD20681B
:101D8000C16841F01001C16010BD00000038014081
:101D9000B80F0020FEE7FEE7704700002DE9FC4188
:101DA0000746FFF7E3FE7806000EFFF7A5FEFFF7F4
:101DB00033FF2C20FFF7A0FEFFF72EFF0620FFF7D2
:101DC0009BFEFFF729FFFFF7FBFE3220FEF77EFFA9
:101DD000FFF7CCFE012000EB4700C0B2FFF78CFEFE
:101DE000FFF71AFF28BBFFF74FFE60F30F04FFF762
:101DF000EBFDFFF749FE60F31F44FFF7E5FDFFF73A
:101E000043FE60F30F06FFF7DFFDFFF73DFE60F3D3
:101E10001F46FFF7D9FDFFF737FE60F30F05FFF709
:101E2000D3FDFFF731FE60F31F45FFF7FDFDFFF720
:101E3000C7FE200C40EA0420310C45EA012180B2A3
:101E40008CB2FEF74DFB0022154BFEF768FA154DDC
:101E500000222B46FEF7D5FA0022134BFEF759FA63
:101E6000FEF75EFB06462046FEF73AFB00220F4BCC
:101E7000FEF755FA00222B46FEF7C3FAFEF750FB99
:101E8000FEF73BFB04460D463046FEF736FB0246A6
:101E90000B4607A0CDE9004500F00CFABDE8FC8137
:101EA00000E06540E0FFEF40008046400000594000
:101EB000252E3266252E3266000000007047FFF79F
:101EC0002BB830B58FB028216846FEF776F914217B
:101ED0000AA8FEF772F901210804CDE900100024D8
:101EE000029402250491CDE907504FF4E0100990C7
:101EF0006846FFF795F908B172B6FEE70F20CDE905
:101F00000A054FF48060CDE90C4002210AA80E9426
:101F1000FFF79AF8002801D072B6FEE70FB030BD87
:101F2000704710B5406A0021C185C184FFF749FBA5
:101F300010BD70B5446A2068406994F83D10C0F344
:101F4000C0100025212904D118B1E584204600F0F5
:101F500083F82068406994F83E10C0F3801022296D
:101F600004D118B1E585204600F05EF8206C40F001
:101F7000100020642046FFF724FB70BD10B5014619
:101F8000406A0968096889061BD40021C185016877
:101F9000CA6822F48072CA6001684A6922F00102AC
:101FA0004A6101684A6922F040024A61202180F8B2
:101FB0003E10016B012904D10168CA6822F01002A9
:101FC000CA60016B012902D0FFF7B7FC10BD818DFB
:101FD000FFF7CAFA10BD10B5406A016B012902D0A3
:101FE000FFF7ACFC10BD818D4908FFF7BDFA10BDAD
:101FF00010B50146406A0968096889060CD40021B9
:10200000C18401684A6922F080024A610068C1689F
:1020100041F04001C16010BDFFF7D2FC10BD10B50A
:10202000406AFFF7CEFC10BD0168CA6822F49072C6
:10203000CA6001684A6922F001024A61016B012904
:1020400004D10168CA6822F01002CA60202180F819
:102050003E100021016370470168CA6822F0C00287
:10206000CA60202180F83D10704708B590F83E10F6
:10207000222901D0022008BD82684FF480539A4281
:1020800001D1016921B1816A9A421BD04AB10AE0AB
:102090000268816A5268C2F308020A80816A891C58
:1020A00008E0026972B10268526802F07F020A70A9
:1020B000816A491C8162C18D491E0904090CC185D0
:1020C00003D019E002685268F1E70168CA6822F09B
:1020D0002002CA600168CA6822F48072CA6001687E
:1020E0004A6922F001024A61202180F83E10016B0A
:1020F000012903D0FFF721FC002008BD0021016366
:102100000168CA6822F01002CA6001680A68D20633
:1021100002D50A6849680091818DFFF725FAEBE73F
:1021200070B5044600680169E26821F4405111432A
:1021300001612169A0680843616908432168CA6890
:1021400041F20C639A430243CA6020684169A26964
:1021500021F44071114341611E492068884202D137
:10216000FFF718F801E0FFF705F800EBC00101EBFD
:102170000012606864218000B2FBF0F3B3FBF1F35E
:102180006FF018067343B2FBF0F5B2FBF0F605EB07
:102190008305322303EB0515B5FBF1F5B6FBF1F62C
:1021A00005F0F00505EB0615B2FBF0F6B2FBF0F01A
:1021B000B0FBF1F06FF01802504306EB800003EB28
:1021C0000010B0FBF1F0216800F00F002844886097
:1021D00070BD00000038014038B58162828500255D
:1021E000134604460564222084F83E00A26B13487F
:1021F0009062A26B1248D062A26B12481063A06B6F
:102200000A4645632168A06B091DFEF727FD20687B
:1022100001684168009184F83C50C16841F48071C4
:10222000C1602068416941F0010141612068416954
:1022300041F040014161002038BD00007D1F0008D1
:10224000D71F0008331F000838B51448006801681C
:10225000C943C9061DD401680024406800900F4896
:10226000FFF783F90E48006840680E4DC0F5FA602C
:1022700082B22A800C490D48FDF786FF2C8021464A
:102280000948FDF79AFF4FF4FA6207490348FFF740
:102290003FFBBDE838400148FFF794B9B80F002074
:1022A000FC0F00200000002018000020E80700209C
:1022B000FEE700000FB4054B10B503A9044A0298CD
:1022C00000F0DAF810BC5DF814FB0000F92B0008F0
:1022D000140000200907090E002804DB00F1E020AB
:1022E00080F80014704700F00F0000F1E02080F843
:1022F000141D704702E008C8121F08C1002AFAD155
:1023000070477047002001E001C1121F002AFBD175
:10231000704700002DE9FF5FDDE90220010DDDF8C7
:1023200038B0024318D044F61050A1F2FF314143B7
:102330000D140F98012820D0A5EB0B00401C5FEA7C
:10234000000A4FF00004474EDFF81C91A0465046AB
:1023500016D5CAF1000728E00F98012443A20128EE
:1023600008D0002100980F9BC0E90021C0E902437A
:10237000BDE8FF9F6FEA0B01F4E7CBF10000DEE759
:10238000074612E0F80707D0224633464046494642
:10239000FDF7C5FF8046894622463346104619465A
:1023A000FDF7BDFF04460E467F10002FEAD1DDE9A0
:1023B0000201BAF1000F42464B4602DAFDF7AFFFC9
:1023C00001E0FEF71EF804460E460022284BFEF7F9
:1023D000D7F903D84FF0FF30014607E00022254B24
:1023E00020463146FDF7F4FEFEF7B2F9102409E06D
:1023F000002C0ADB0A220023FEF7C4F8019B3032CE
:102400001A55641E50EA0102F2D1641C019AC4F10B
:10241000110314440F9A012A03D0012208430DD15D
:102420000AE0084304D000204FF0110B0F9080E722
:10243000A3EB0B056D1E0DE05B4504DD4FF00002C4
:1024400005F1010504E003DA4FF00002A5F10105F2
:10245000002AECD000980F99C0E90231C0E900458C
:1024600086E70000000024400000F03F300000003C
:102470000000F0430000E03F2DE9FF4F95B09B4680
:102480008946064600250FE2252877D100242746F5
:10249000F84A0121059400E0044316F8013F203B6F
:1024A00001FA03F01042F7D130782A2811D06FF0EA
:1024B0002F033078A0F13002092A16D8059A44F08B
:1024C000020402EB820203EB42021044761C0590E8
:1024D000EFE759F8042B0592002A03DA504244F43E
:1024E0000054059044F00204761C30782E2816D152
:1024F00016F8010F44F004042A280DD06FF02F02C3
:102500003078A0F13003092B09D807EB870302EBE1
:102510004303C718761CF3E759F8047B761C307820
:102520006C280FD006DC4C2817D068280DD06A28FC
:1025300014D104E0742810D07A280FD10DE044F4AF
:1025400000140AE044F4801401E044F4401472786A
:10255000824202D104F58014761C761C30786628FD
:102560000BD013DC582877D009DC002875D045281B
:10257000F6D04628F4D047281AD19DE118E0632808
:1025800035D0642879D0652812D195E1702873D0B0
:1025900008DC6728F1D069286FD06E280DD06F282D
:1025A00006D1B5E073282CD0752875D0782874D062
:1025B0005A46179990476D1C75E1C4F302500228E2
:1025C00009D003280DD0D9F8001004280DD00D60D3
:1025D00009F1040967E1D9F80010EA17C1E90052CE
:1025E000F6E7D9F800100D80F2E70D70F0E719F862
:1025F000041B8DF8001000208DF80100EA46012030
:1026000003E059F804AB4FF0FF3061074FF00001D1
:1026100002D40DE008F101018846B9420FDA804585
:10262000F8DB1AF808100029F4D108E008F10101DC
:1026300088468142FADB1AF808100029F6D105987D
:102640005B46A0EB080721463846179A00F094FA3B
:10265000284400EB080507E04DE029E10DE01AF8F9
:10266000010B5A4617999047B8F10108F7D25B461B
:1026700021463846179A13E142E00A220092C4F339
:1026800002524FF0000A022A08D059F804CB032A5C
:102690004FEAEC710AD00DE029E02AE009F10701C8
:1026A00021F00702F2E802C1914609E00FFA8CFC22
:1026B0004FEAEC71042A03D14FFA8CFC4FEAEC711B
:1026C000002907DA0A460021DCF1000C61EB020167
:1026D0002D2202E0220504D52B228DF804200122B0
:1026E00003E0E20701D02022F7E7904659E00A21F3
:1026F00002E010220DE010214FF0000A00910BE0E3
:1027000010224FF0000A44F004040827009203E06E
:1027100008224FF0000A0092C4F30252022A05D0A8
:1027200059F804CB0021032A08D009E009F1070178
:1027300021F00702F2E802C1914605E01FFA8CFC85
:10274000042A01D10CF0FF0C4FF00008220728D515
:10275000702806D0009B83F0100353EA0A0305D0CB
:102760000EE040228DF80420012208E05CEA01021C
:1027700006D030228DF804208DF805000222904604
:10278000009B83F0080353EA0A030AD15CEA0102C2
:1027900001D1620705D530228DF804204FF00108E1
:1027A0007F1E582804D034A003900EA802900DE09C
:1027B00036A0F9E753466046009AFDF7E3FE8446EB
:1027C0000398825C0298401E029002705CEA01004D
:1027D000F0D1029806A9081A00F1200A600702D574
:1027E00024F4803400E00127574502DDA7EB0A00FE
:1027F00000E0002000EB0A01009005984144401AD7
:102800000590E00306D45B462146179A059800F030
:10281000B3F90544002706E001A85A46C05D1799A0
:1028200090476D1C7F1C4745F6DBE0030CD55B46EB
:102830002146179A059800F09FF9054404E03020DE
:102840005A46179990476D1C0099481E0090002920
:10285000F5DC08E0029802995A460078491C02917A
:10286000179990476D1CBAF10001AAF1010AF1DC39
:1028700065E1000009280100303132333435363744
:1028800038396162636465660000000030313233BC
:10289000343536373839414243444546000000005C
:1028A00000F058F90544761C307800287FF4ECAD30
:1028B00019B02846BDE8F08F620700D4062709F159
:1028C000070222F0070CFCE80223E14603F000486F
:1028D0005FEA080C02D00FF2702C0DE05FEA045C96
:1028E00002D50FF2682C07E05FEAC47C02D00FF239
:1028F000602C01E0AFF2700C4FF0FF3823F0004382
:10290000CDF850C065280CD006DC452809D04628F3
:102910001DD047283DD13DE0662818D067287ED1DC
:1029200038E00021112F01DB112000E0781CCDE9F7
:10293000000106A90EA8FFF7EDFCDDE90F010E9AD4
:1029400003910021009207F1010A04914DE04FF03C
:1029500000400097CDE9011006A90EA8FFF7DAFCA8
:10296000DDE90F0203920E9B11990022DDF80CA005
:102970000093049211B9791C00EB010AB7EB0A002D
:1029800004D4C0F1FF3007F1010A0490AAEB07005C
:10299000019044E0012F00DA01270021112F01DD11
:1029A000112000E03846CDE9000106A90EA8FFF786
:1029B000B1FCDDE90F010E9A039100210491009210
:1029C000BA4621070CD40399514500DA8A46BAF178
:1029D000010F05DD009AAAF10101515C302908D0F0
:1029E000B84202DA10F1040F06DA0121CDE9011034
:1029F00015E0AAF10101E9E7002805DC049901448A
:102A00000491AAEB000102E0411C514500DD8A4619
:102A10000499401A401C01904FF00040029020079A
:102A200004D40198504501DBCDF8048000208DF8D6
:102A30004F0002980DF14F07B0F1004F25D02B2029
:102A40000E9002984FF0020800280CDA40420290E3
:102A50002D200E9007E00A210298FDF77DFD303110
:102A6000029007F8011DB8F10001A8F10108F2DC9D
:102A700002980028EFD1791E0E980870307800F087
:102A8000200040F0450007F8020D12A8C01B00F11D
:102A900007081498007800B1012000EB0A010198A2
:102AA00001EBE07105984144401A401E0590E00397
:102AB00006D45B462146179A059800F05DF8054458
:102AC0001498007818B15A46179990476D1CE00386
:102AD00024D55B462146179A059800F04DF8054429
:102AE0001CE00498002807DBDDE90301884203DDD0
:102AF0000098405C179901E0179930205A4690479A
:102B0000049805F10105401C04900198401E0190B5
:102B100004D12E205A46179990476D1CBAF1000136
:102B2000AAF1010ADDDC05E017F8010B5A461799F6
:102B300090476D1CB8F10001A8F10108F4DC5B4678
:102B40002146179A0598ABE62D0000002B000000E7
:102B5000200000002DE9F041044600251E461746DE
:102B6000880404D405E039462020B0476D1C641E5B
:102B7000F9D52846BDE8F0812DE9F041044600254D
:102B80001E469046C80301D5302700E02027880460
:102B900004D505E041463846B0476D1C641EF9D5A2
:102BA0002846BDE8F081000071B54FF461754FF023
:102BB000E023104E009819E02C46A04200D80446AD
:102BC0009869614201EBC10110EBC10105D49A691A
:102BD000824208DA8A42FADA05E08A199969814262
:102BE000FCDD9142FADC0098001B00900028E3D144
:102BF00078BD00004019010004490A685206FCD55E
:102C0000024AC1B2121D1160704700000038014035
:102C1000FEF78AF94FF4FA6421461048FDF7CDFA21
:102C200021460F48FDF7C9FAFFF74BF9FFF762F8A5
:102C3000FFF742F8FFF78EF8224609490948FEF7E8
:102C40007FFE094C4420FFF7A9F802212046FEF739
:102C500050F93220FEF73AF8F4E70000E8070020C8
:102C600018000020B80F0020000C014000000000F8
:102C7000000000000102030406070809000000002C
:102C800001020304A42C000800000020180000002A
:102C9000F4220008BC2C000818000020701400006A
:102CA00004230008000000000100000010000000E4
:0C2CB000000000000024F4000000000000
:0400000508000131BD
:00000001FF
